:020000040800F2
:10000000A809002089010008E12A0008251D000830
:10001000352A0008DD0600082D4800080000000011
:100020000000000000000000000000009D3B0008F0
:10003000611000080000000005320008A10100085E
:10004000A3010008A3010008A3010008A301000800
:10005000A3010008A301000839170008A301000844
:10006000A3010008A3010008A3010008A3010008E0
:10007000A3010008A3010008A3010008A3010008D0
:10008000A3010008A3010008A3010008A3010008C0
:10009000A3010008A3010008A3010008A3010008B0
:1000A000A3010008A3010008A3010008A3010008A0
:1000B000A3010008B93D0008A3010008A30100083E
:1000C000A3010008A3010008A3010008A301000880
:1000D000A3010008A9450008A3010008A301000826
:1000E000A3010008A3010008A301000800F002F822
:1000F00000F03AF80AA090E8000C82448344AAF188
:100100000107DA4501D100F02FF8AFF2090EBAE885
:100110000F0013F0010F18BFFB1A43F0010318473B
:10012000F063000010640000103A24BF78C878C162
:10013000FAD8520724BF30C830C144BF04680C60ED
:10014000704700000023002400250026103A28BF35
:1001500078C1FBD8520728BF30C148BF0B60704739
:100160001FB51FBD10B510BD00F044F81146FFF7D4
:10017000F7FF05F005F800F062F803B4FFF7F2FFAF
:1001800003BC00F063F800000948804709480047B5
:10019000FEE7FEE7FEE7FEE7FEE7FEE7FEE7FEE737
:1001A000FEE7FEE704480549054A064B7047000094
:1001B000593D0008ED000008A8030020A809002010
:1001C000A8050020A805002070477047704710B5AB
:1001D00000F008F8006810BD10B5044600F002F801
:1001E000046010BD00487047440300200048704779
:1001F000440300207546FFF7F9FFAE460500694647
:10020000534620F00700854618B020B5FFF7CAFF17
:10021000BDE820404FF000064FF000074FF0000807
:100220004FF0000B21F00701AC46ACE8C009ACE888
:10023000C009ACE8C009ACE8C0098D467047044667
:10024000AFF300802046FFF798FF00000149182017
:10025000ABBEFEE726000200704700002DE9F04724
:1002600005460C46B5F90010B4F90020881A05F0CF
:100270007FFE814625480168484605F0D9FE0746BD
:10028000B4F9000005F074FE8046394605F004FD1F
:10029000064605F031FE00B22080B5F90210B4F92F
:1002A0000220881A05F064FE814618480168484615
:1002B00005F0BEFE0746B4F9020005F059FE80467F
:1002C000394605F0E9FC064605F016FE00B26080EE
:1002D000B5F90410B4F90420881A05F049FE8146E6
:1002E0000A480168484605F0A3FE0746B4F9040031
:1002F00005F03EFE8046394605F0CEFC064605F088
:10030000FBFD00B2A080BDE8F087000030000020B7
:1003100008B50121084603F07BF901214FF4027072
:1003200003F0A6F94FF4004003F066F90220ADF89F
:10033000000000208DF803006946024801F00CFB24
:1003400008BD0000000C014010B5FFF7E1FF00F010
:1003500001F810BD00B591B0384800F0BDFD384837
:10036000069038480790002008900220099000204D
:100370000A9080200B9040000C9080000D9020206F
:100380000E9000020F900020109006A92B4800F05C
:1003900049FE0121294800F093FD29484C3800F01E
:1003A00069F8012000F042F90020019001208DF849
:1003B00008008DF809004FF460200390002004909D
:1003C00002208DF8140001A91D484C3800F094F863
:1003D0000723012209211A484C3800F0B5F80723F9
:1003E0000222112116484C3800F0AEF801211448C1
:1003F0004C3800F034F8012111484C3800F024F852
:100400000F484C3800F0FCF800BF0D484C3800F0A5
:1004100069F80028F9D10A484C3800F001F900BF0A
:1004200007484C3800F054F80028F9D1012104485D
:100430004C3800F0EAF811B000BD0000080002409E
:100440004C240140A800002021B1826842F0010242
:10045000826003E0826822F001028260704721B16D
:10046000826842F48072826003E0826822F48072C3
:100470008260704710B504461248844208D10121B9
:10048000401503F005F90021601503F001F917E0AC
:100490000D48844208D10121001503F0F9F800212C
:1004A000201503F0F5F80BE00848844208D101213B
:1004B000C80303F0EDF800214FF4004003F0E8F822
:1004C00010BD00000024014000280140003C014014
:1004D000014600208A6812F0040F01D0012000E0DC
:1004E00000207047014600208A6812F0080F01D0F2
:1004F000012000E00020704730B5024600200023B4
:1005000050680F4C20400D790C6844EA05242043C4
:10051000506090680B4C2040D1E902542C434D7937
:1005200044EA450420439060D06A20F470000C7CBB
:10053000641EE4B2234340EA0350D06230BD0000A1
:10054000FFFEF0FFFDF7F1FFF0B504460D46002079
:100550000021092D11DDE068A5F10A0606EB46072A
:10056000072606FA07F18843A5F10A0606EB4606B8
:1005700003FA06F10843E0600CE0206905EB45074B
:10058000072606FA07F1884305EB450603FA06F14C
:1005900008432061072A0FDA606B561E06EB8607B8
:1005A0001F2606FA07F18843561E06EB860605FA53
:1005B00006F10843606322E00D2A0FDA206BD61F94
:1005C00006EB86071F2606FA07F18843D61F06EBBF
:1005D000860605FA06F10843206310E0E06AA2F1FE
:1005E0000D0606EB86071F2606FA07F18843A2F1DF
:1005F0000D0606EB860605FA06F10843E062F0BD3B
:10060000816841F008018160704721B1826842F43D
:10061000A002826003E0826822F4A0028260704738
:10062000816841F0040181607047000030B10749E2
:10063000096841F40001054A116005E003490968B1
:1006400021F40001014A11607047000008240140B4
:1006500010B501F0C7FF01F0F7FF4FF4E13004F0EF
:1006600099F84FF47A7003F06DFF02F055FD11A078
:1006700002F0E8FD02F0E0F9FFF766FE03F0AAF9E8
:100680000221282002F0AEFB02F038FB01F04CFB07
:1006900000BF01F00DFF0128FBD10D490D4800F00E
:1006A0001FF801F019F900F0F7FC01200A49087061
:1006B00010BD00000D0A20526167696E67466972BD
:1006C000655F466C792056322E322E32200D0A009C
:1006D000000020416F12833A3400002000BFFEE783
:1006E0002DE9F04104460D4629460B4805F0A0FCD3
:1006F000804641464FF07E5005F03CFB07462146C0
:1007000005F0CAFA06463146204605F033FB034998
:100710000860BDE8F0810000DB0FC9403000002018
:100720002DE9F04705460C46E08840F2D251884258
:1007300007DDE08840F2E651884202DA40F2DC5000
:10074000E080A08840F2D251884207DDA08840F2C4
:10075000E651884202DA40F2DC50A0802089B0F5F0
:10076000BB6F06DB2089B0F5BC6F02DC40F2DC50C9
:1007700020816089B0F5BB6F06DB6089B0F5BC6F86
:1007800002DC40F2DC5060816189A1F2DC5005F0AE
:10079000EFFB80467A4905F0EDFA0646E188A1F2C2
:1007A000DC5005F0E5FB8146764905F0E3FA80462A
:1007B000696805F03AFD0746314605F06DFA724961
:1007C00048602189A1F2DC5005F0D2FB80466C49DB
:1007D00005F0D0FA0646A188A1F2DC5005F0C8FB6E
:1007E0008146684905F0C6FA8046A96805F01DFDF6
:1007F0000746314605F024FD63498860486863492F
:1008000005F0E2FC06D26249C868604905F044FA86
:100810005F49C8605C4948685E4905F0D5FB07D26E
:100820005B49C8685B4905F037FA5949C86007E079
:10083000554A5168564AD06805F02EFA5449C860A6
:100840005349C868544905F0BFFC02D25248504988
:10085000C8604F49C868514905F0B6FB02D24F48FD
:100860004B49C86048498868484905F0ADFC06D244
:100870004B49C868454905F00FFA4949C8604249E3
:100880008868444905F0A0FB07D24549C86841493A
:1008900005F002FA4249C86007E03B4A9168404AC5
:1008A000D06805F0F9F93E49C8603D49C8683A4941
:1008B00005F08AFC02D238483949C8603849C8680E
:1008C000364905F081FB02D234483549C86020889A
:1008D000B0F5966F04DA00202D49C8603049C86031
:1008E000304A5168284A506805F0AAFC80462848DA
:1008F0008168404605F09CFB0746254AD168506850
:1009000005F096FB8046204A5168214A106805F0A0
:100910008FFB8146414605F0BFF90646394605F092
:10092000BBF91B4908611F4A9168174A906805F096
:1009300087FC80461A488168404605F079FB0646E8
:10094000174AD168506805F073FB80460E4A9168DB
:10095000134A106805F06CFB8146414605F09CF98E
:100960000746314605F098F90D4908610648406888
:100970000C494860044880688860BDE8F087000042
:100980000000C84200005041F80000200000204153
:10099000A4020020000020C100007A4400007AC4B4
:1009A000900200200401002007B58AB00B9840880F
:1009B000B0F5AF6F08DD0B984088B0F5C86F03DA6B
:1009C00040F2DC510B9841800B988089B0F5BB6FE9
:1009D00008DB0B988089B0F5BC6F03DC40F2DC517A
:1009E0000B9881810A984068FE49039005F020FB2E
:1009F0000590FD48006980F000400490059905F0DD
:100A00001FFCFA4948600A980068F649049005F00E
:100A10000FFB0590F648006901460490059805F023
:100A200004FCF24988600B98807B10F0010F1AD00B
:100A30000B988089A0F2DC50029005F099FAED49FC
:100A4000039005F097F905900A98806880F00040BF
:100A5000E449039005F0ECFA0490059905F0F0FBE9
:100A6000E249086029E00B988089A0F2DC500290EE
:100A700005F07EFAE049039005F07CF905900A98AC
:100A80008068D849019005F0D3FA03900B9840880C
:100A900040F2DC51081A009005F06AFA4FF08041EC
:100AA000019005F067F90290039905F0C9FB0490E5
:100AB000059905F0F1F8CD490860CC484068CE4969
:100AC000059005F081FB07D2CC48C068CA49059063
:100AD00005F0E2F8C949C860C4484068C8490590B3
:100AE00005F072FA08D2C548C068C549059005F0FE
:100AF000D3F8C249C8600AE0BC4840680590BF48C6
:100B0000C0680490059905F0C7F8BC49C860BB48A7
:100B1000C068BC49059005F057FB02D2B948B749F7
:100B2000C860B648C068B849059005F04DFA02D2D1
:100B3000B548B249C860AD488068AF49059005F036
:100B400043FB07D2B148C068AB49059005F0A4F853
:100B5000AE49C860A5488068A949059005F034FAF7
:100B600008D2AA48C068A649059005F095F8A7499B
:100B7000C8600AE09D4880680590A448C068049059
:100B8000059905F089F8A149C860A048C0689D4949
:100B9000059005F019FB02D29A489C49C8609B4811
:100BA000C0689949059005F00FFA02D29648974916
:100BB000C8608E48006805909548C0680490059903
:100BC00005F06AF89249C8600846C0688D490590EA
:100BD00005F0FAFA02D28B488D49C8608C48C0688B
:100BE0008949059005F0F0F902D287488849C86024
:100BF0000B980088B0F5966F02DA00208449C8602F
:100C0000844840680290794840680190029905F054
:100C100017FB03907948806801460290039805F01D
:100C200007FA05907548C0680190744840680090C4
:100C3000019905F0FDF903906C48406801906F48F8
:100C400000680090019905F0F3F90290039905F00E
:100C500023F80490059905F01FF8684908616D486C
:100C600080680290614880680190029905F0E8FA76
:100C700003906648806801460290039805F0D8F911
:100C800005906248C06801906048406800900199F2
:100C900005F0CEF903905548806801905B480068E4
:100CA0000090019905F0C4F90290039904F0F4FF53
:100CB0000490059904F0F0FF544908615548006814
:100CC00002904A4800680190029905F0B9FA039031
:100CD0004F48806801460290039805F0A9F90590F5
:100CE0004B48C06801904A4840680090019905F05F
:100CF0009FF903903D4800680190454800680090C6
:100D0000019905F095F90290039904F0C5FF04904C
:100D1000059904F0C1FF3E490861344840683D49E7
:100D200048603248806888603048006808600B98E6
:100D30000088B0F5966F6FDD0C9800286CD10B9889
:100D40000088A0F21A40019005F012F902902F4895
:100D5000006901460190029804F09EFF0390274825
:100D6000006901460290039804F096FF0490284819
:100D7000006901460390049805F062FA059005F0B9
:100D8000BBF800B209900B980088A0F21A400190BD
:100D900005F0EEF802901D480069014601900298A6
:100DA00004F07AFF03901548006901460290039809
:100DB00005F046FA0490164800690146039004982D
:100DC00004F06AFF059005F097F800B208900B98C0
:100DD0000088A0F21A40019005F0CAF802900B4872
:100DE00000691AE0E12E6542A402002010010020F3
:100DF000900200200000C84200004842CC020020BF
:100E0000000048C200409C4500409CC5B80200203C
:100E1000E00200201C0100203EE001460190029803
:100E200005F00EFA039023480069014602900398EA
:100E300004F032FF049020480069014603900498B2
:100E400004F02AFF059005F057F800B207900B98C0
:100E50000088A0F21A40019005F08AF80290174825
:100E6000006901460190029805F0EAF903901148E3
:100E7000006901460290039805F0E2F904900E48DB
:100E8000006901460390049805F0DAF9059005F031
:100E900033F800B2069004E0002009900890079013
:100EA0000690DDE90632DDE9081001F0EDFD0DB038
:100EB00000BD0000CC020020E0020020B8020020AB
:100EC00021B1026842F00102026004E002684FF6BC
:100ED000FE731A400260704701684FF6FE721140BF
:100EE00001600021016041608160C1604B4988421E
:100EF00008D14A490839496841F00F01474A083A80
:100F000051608AE045491431884208D14349083983
:100F1000496841F0F001414A083A51607DE03F499B
:100F20002831884208D13D490839496841F4706147
:100F30003A4A083A516070E038493C31884208D159
:100F400036490839496841F47041344A083A5160D9
:100F500063E032495031884208D130490839496844
:100F600041F470212D4A083A516056E02B49643112
:100F7000884208D129490839496841F47001274A53
:100F8000083A516049E025497831884208D123491F
:100F90000839496841F07061204A083A51603CE0E4
:100FA0001F49884206D1011F096841F00F01021F45
:100FB000116032E01A491431884208D11849091FDA
:100FC000096841F0F001164A121F116025E014492A
:100FD0002831884208D11249091F096841F470611B
:100FE0000F4A121F116018E00D493C31884208D1A8
:100FF0000B49091F096841F47041094A121F116029
:101000000BE007495031884207D10549091F09689B
:1010100041F47021024A121F11607047080002401B
:101020000804024010B50022026847F6F0739A43A4
:101030000C6A8B6823430C6923434C6923438C69F6
:101040002343CC6923434C6A23438C6A23431A43CA
:101050000260CB6843600B6883604B68C36010BD5F
:101060007047002109E0002201E0531C9AB242F2CD
:1010700034139A42F9DB4B1C99B28142F3DB70477F
:101080000120014908707047B1000020012001498A
:1010900008707047B000002010B500F045FA00F06D
:1010A0001FF800F045F800F06BF80B49C88B0B49AE
:1010B00000F0BCFA094800880F280CD0012003F08A
:1010C00025FD0549C88B0F2100F024FB002003F00B
:1010D0001DFD02F053F810BD5C000020A0000020B0
:1010E00010B50E4908880E4900F0A0FA0B4948884F
:1010F0000C4900F09BFA094988880B4900F096FAE0
:101100000748008800B2094908800648008800B2F4
:1011100048800548008800B2888010BD5C0000202F
:10112000A0000020A2000020A400002094000020C5
:1011300010B50E49C8880E4900F078FA0B490889A5
:101140000C4900F073FA094948890B4900F06EFA1E
:101150000748008800B2094908800648008800B2A4
:1011600048800548008800B2888010BD5C000020DF
:10117000A0000020A2000020A40000209A0000206F
:1011800010B548498889484900F050FA4549C8894E
:10119000464900F04BFA4349088A454900F046FAAF
:1011A0004148008804F0FCFE0446424904F0E2FD98
:1011B000414908603D48008804F0F2FE04463F497A
:1011C00004F0D8FD3C4948603948008804F0E8FE46
:1011D00039498860084600683949086036484068DF
:1011E00048603548806888602E49488A2E4900F05A
:1011F0001DFA2C49888A2D4900F018FA2949C88A15
:101200002B4900F013FA2848008804F0C9FE044670
:10121000284904F0AFFD2B4908602448008804F0F9
:10122000BFFE0446254904F0A5FD26494860204834
:10123000008804F0B5FE234988600846006822490A
:1012400008602048406848601E48806888601549EA
:10125000088B154900F0EAF91249488B134900F050
:10126000E5F91049888B124900F0E0F90E48008832
:1012700004F096FE04460F4904F07CFD1349086013
:101280000A48008804F08CFE04460C4904F072FD04
:101290000E4948600648008804F082FE0B498860C9
:1012A00010BD00005C000020A0000020A200002073
:1012B000A400002000002041A402002000007A4485
:1012C00090020020CC020020B8020020E0020020A2
:1012D00010B5012003F01AFC0C4A128891B20C4A96
:1012E000108800F017FA094A528891B2084A5088CB
:1012F00000F010FA054A928891B2054A908800F0F1
:1013000009FA002003F002FC10BD00009400002048
:101310005C00002010B5012003F0F8FB0C4A128895
:1013200091B20C4AD08800F0F5F9094A528891B27E
:10133000084A108900F0EEF9054A928891B2054AF0
:10134000508900F0E7F9002003F0E0FB10BD000039
:101350009A0000205C00002010B5012003F0D6FBAD
:1013600043490868434904F063FE044604F0C4FDA1
:10137000414908803E494868404904F059FE044606
:1013800004F0BAFD3E4908803949886804F0B4FD8C
:101390003C4908803C4988893749098800F0BAF9F6
:1013A0003949C8893649098800F0B4F93649088AAC
:1013B0003449098800F0AEF9344908682D4904F031
:1013C00037FE044604F098FD2B4908802F494868F1
:1013D0002A4904F02DFE044604F08EFD28490880B9
:1013E0002A49886804F088FD264908802649488AE9
:1013F0002149098800F08EF92349888A2049098803
:1014000000F088F92049C88A1E49098800F082F94D
:101410001F490868174904F00BFE044604F06CFDF0
:10142000154908801A494868144904F001FE044629
:1014300004F062FD124908801549886804F05CFDDB
:10144000104908801049088B0B49098800F062F99F
:101450000D49488B0A49098800F05CF90A49888BD4
:101460000849098800F056F9002003F04FFB10BD31
:10147000A402002000002041A000002000007A44C7
:10148000A2000020A40000205C000020CC0200206C
:10149000E002002003460621062212480188124875
:1014A0000288A3B1012B1AD132B9A1F56E40EE38F2
:1014B00000D170470120FCE739B9A2F56E40EE3843
:1014C00001D10120F5E70020F3E7AB20F1E709B9EE
:1014D0000020EEE70AB90120EBE7AB20E9E70020A6
:1014E000E7E70000000001080004010810B504242B
:1014F0000B4800F091F90446042C01D0204610BDA1
:101500000021074800F0C8F90446042C01D0204609
:10151000F5E7044800F080F904462046EFE70000B4
:10152000000001080004010810B503F095F9044615
:1015300000F08CFF204610BD2DE9F84F0746894684
:101540000425DFF8D8A0364800904FF000080024AA
:1015500000264FF0000B0020FFF79CFF8046B8F1FB
:10156000010F05D1DFF8B8A02C48401C00900CE01A
:10157000B8F1000F06D1DFF8A4A00AF1010A28484B
:10158000009002E0AB20BDE8F88F4EF6EE615046C9
:1015900000F082F90546042D01D02846F3E700F05B
:1015A00055FF4946384600F071F80646042E01D032
:1015B0003046E8E700241CE01A4830F81400B8422E
:1015C00015D0184931F81400174900F02FF8834658
:1015D000BBF1010F0BD0134931F8140012490988EF
:1015E00000F054F80646042E01D03046CBE7601CCC
:1015F00084B2102CE0DB009800F00EF90546042DB3
:1016000001D02846BFE70021504600F045F90546C5
:10161000042D01D02846B6E72846B4E7FF030108A9
:10162000000001085C000020540000202DE9F04774
:1016300006460F46002545F255584FF00109114C5A
:10164000A2460020FFF726FF0546AB2D01D1BDE8DD
:10165000F0870C4800EB852A0B480068841E0AE0DE
:10166000B4F80080B04505D134F8020C38804FF052
:10167000000904E0241F0AF102008442F0D800BFF0
:101680004846E4E700000108580000202DE9F04139
:1016900004460F4604250026DFF86C800120FFF782
:1016A000F9FE0646AB2E01D1BDE8F081701C17494A
:1016B00001EB802821E0164800680068401C17D123
:1016C00039461348006800F0E7F80546042D01D0BC
:1016D0002846E9E721460E480068801C00F0DCF847
:1016E00005460B480068001D094908602846DBE7ED
:1016F00007480068001D0649086005480068404525
:10170000D9D38020D0E70000FF070108FEFF0008C2
:101710005800002070B505460E4600243146284684
:10172000FFF7B4FF0446802C04D131462846FFF76A
:1017300003FF0446204670BD10B5012000F00EF8EE
:1017400020B1012000F004F801F01AFB10BD0000E8
:101750000149086070470000140401400146002060
:101760000022074B1B6803EA0102054B14331B6878
:101770000B4202D00AB1012000E0002070470000B7
:1017800000040140002123498279002A3AD00A4608
:10179000126803689A430B461A600A1D12680368B0
:1017A0009A430B1D1A60027911440A6803681A43B0
:1017B0000A60184A0832126803689A43154B0833C6
:1017C0001A601A1D126803689A43124B0C331A6090
:1017D0004279102A0ED11A1F126803681A430D4B62
:1017E00008331A601A1D126803681A43094B0C3338
:1017F0001A600DE00749427911440A6803681A43E8
:101800000A6005E0027911440A6803689A430A6095
:10181000704700000004014030B5044604254FF431
:10182000302000F065F80546042D17D10C480069FA
:1018300040F002000A49086108464461006940F02E
:10184000400008614FF4302000F052F8054604488B
:10185000006941F6FD71084001490861284630BD24
:101860000020024004200B49C96811F0010F01D08B
:1018700001200EE00749C96811F0040F01D00220D1
:1018800007E00449C96811F0100F01D0032000E0FF
:10189000042070470020024070B504460D4604261F
:1018A000F00200F025F80646042E11D1094800691F
:1018B00040F00100074908612580F00200F018F8A7
:1018C00006460448006941F6FE7108400149086176
:1018D000304670BD0020024002480349486003487A
:1018E000486070472301674500200240AB89EFCD77
:1018F00000B502460423FFF7B5FF034603E0FFF7F8
:10190000B1FF0346521E012B01D1002AF7D102B9C3
:101910000523184600BD000030B500228B071C0FC0
:101920000F2303FA04F20B4B8C1053F8243093432B
:10193000084C8D1044F8253023468C1053F8243081
:101940008C07240F00FA04F42343024C8D1044F852
:10195000253030BD080001402DE9F0410246002548
:101960000026002000230024002791F803C00CF07B
:101970000F0591F803C01CF0100F03D091F802C0BE
:101980004CEA050591F800C0BCF1000F31D0146895
:1019900000202BE04FF0010C0CFA00F3B1F800C06E
:1019A0000CEA03069E4220D183004FF00F0C0CFA84
:1019B00003F7BC4305FA03FC4CEA040491F803C0A6
:1019C000BCF1280F06D14FF0010C0CFA00FCC2F854
:1019D00014C00AE091F803C0BCF1480F05D14FF0E4
:1019E000010C0CFA00FCC2F810C0401C0828D1D32E
:1019F0001460B1F800C0BCF1FF0F34DD5468002062
:101A00002EE000F1080C4FF0010808FA0CF3B1F8D1
:101A100000C00CEA03069E4221D183004FF00F0C58
:101A20000CFA03F7BC4305FA03FC4CEA040491F8F2
:101A300003C0BCF1280F05D100F1080C08FA0CF81E
:101A4000C2F8148091F803C0BCF1480F07D100F12F
:101A5000080C4FF0010808FA0CF8C2F81080401C7E
:101A60000828CED35460BDE8F0810000F0B50A46E6
:101A7000002300240021002500F00046B6F1004FAD
:101A800002D11D4EF16901E01B4E7168C0F30345A0
:101A900083B200F44016B6F5401F08D121F0706102
:101AA000154E766826F07066134F7E6012E000F4E3
:101AB0008016B6F5801F06D1032606FA05F4A14369
:101AC00041F0706106E0460D360103FA06F6B143B7
:101AD00041F0706122B1460D360103FA06F631433A
:101AE00000F00046B6F1004F02D1034EF16101E073
:101AF000014E7160F0BD00000000014010B50146CC
:101B00000020CB78002204E0D41C0C5D6040541C03
:101B1000E2B29C1CA242F7DB10BD00002DE9F04FA1
:101B200089B082463E480168006804F081FA059059
:101B30003C480168006804F07BFA03903A48016869
:101B4000006804F075FA019038480168006804F0F4
:101B50006FFA0090019904F073FB0290039904F06E
:101B60006FFB0490059904F097F8834604F068F839
:101B700006460F462A4801682A48006804F058FAC9
:101B80000490294801682948006804F051FA03903C
:101B9000049904F081F84FF08041059004F048FA70
:101BA000834604F04DF832463B46CDE9060103F08A
:101BB00001FA81F0004104464FF000521C4B03F043
:101BC00065FD804603F028FBCAF808001448016848
:101BD0001548006804F02CFA069012480168134872
:101BE000006804F025FA0590069904F029FB4FF0EF
:101BF0008041079004F01CFA834604F021F8064661
:101C000002F088FF80464FF00052094B03F03EFD82
:101C1000044603F001FBCAF8040009B0BDE8F08FE8
:101C2000100000200C00002008000020040000200C
:101C3000DCA54C4070B504460D46B4F9000004F034
:101C400097F906460B4904F0F3F92860B4F902004D
:101C500004F08EF90646074904F0EAF96860B4F921
:101C6000040004F085F90646024904F0E1F9A86091
:101C700070BD000089A18B3AF0B502460023002414
:101C8000002500201688234FDFF88CC09CF800C088
:101C900027F81C605688214FDFF87CC09CF800C0F4
:101CA00027F81C6096881E4FDFF86CC09CF800C0B7
:101CB00027F81C6000BF0DE0164E36F91060334463
:101CC000164E36F910603444154E36F9106035441E
:101CD000461CF0B20228EFDB1E4603EBD6777F10DE
:101CE0003FB20F80264604EBD6777F103FB24F807D
:101CF0002E4605EBD6777F103FB28F80064E3678A2
:101D0000761C054F3E703E463678022E01D10026E5
:101D10003E70F0BD200000202C0000202400002098
:101D20002800002000BFFEE708B50121082001F0CF
:101D30009FFC4FF44870ADF8000003208DF80200BE
:101D400010208DF8030069461148FFF705FE4FF497
:101D50008060ADF8000003208DF8020014208DF89B
:101D6000030069460A48FFF7F7FD4FF40060ADF83D
:101D7000000003208DF8020014208DF8030069464E
:101D80000348FFF7E9FD03A001F05CFA08BD00007D
:101D9000000C01400D0A20C4A3C4E24932432020B4
:101DA000B3F5CABCBBAFCDEAB3C9A3A10000000024
:101DB00010B54FF480600F490860042000F03EF930
:101DC00000BF4FF400600B490860042000F036F9B2
:101DD00000BF4FF480600749091F0860042000F02D
:101DE0002DF900BF4FF4806002490860042000F024
:101DF00025F910BD140C014010B54FF480600E4958
:101E00000860042000F01AF94FF400600A49091F25
:101E10000860042000F012F94FF480600649091FA1
:101E20000860042000F00AF94FF48060024908605D
:101E3000042000F003F910BD140C014070B5082512
:101E40000024280217490860042000F0F7F819E080
:101E50004FF480601349091D0860042000F0EEF87B
:101E600000BF4FF480600F490860042000F0E6F8DE
:101E70006006040E0B480838006810F4006F01D0AB
:101E800044F001042800A5F10101CDB2E0D14FF4E6
:101E900080600449091D0860042000F0CFF8204646
:101EA00070BD0000100C014010B54FF480601C495B
:101EB0000860042000F0C2F84FF400601849091FC0
:101EC0000860042000F0BAF84FF480601449091F3C
:101ED0000860042000F0B2F811480C38006808B916
:101EE000012000E0002010F4006F01D0002010BDA0
:101EF0004FF400600A490860042000F09FF8084889
:101F00000C38006810F4006F01D00020EFE74FF4A8
:101F1000006003490860042000F090F80120E6E723
:101F2000140C014010B54FF480600E490860042085
:101F300000F084F84FF400600A490860042000F0C3
:101F40007DF84FF480600749091F0860042000F005
:101F500075F84FF400600349091F0860042000F081
:101F60006DF810BD140C014010B54FF48060164997
:101F70000860042000F062F84FF400601249091F65
:101F80000860042000F05AF84FF480600E49091FE1
:101F90000860042000F052F80B480C38006810F478
:101FA000006F08D04FF4806007490860042000F0FB
:101FB00045F8002010BD4FF48060034908600420FC
:101FC00000F03CF80120F5E7140C014070B5044620
:101FD000082523E04FF4806017490860042000F0D2
:101FE0002DF814F0800F08D04FF400601249091F3B
:101FF0000860042000F022F806E04FF400600E496B
:102000000860042000F01AF86006040E4FF48060A7
:102010000949091F0860042000F010F82800A5F104
:102020000101CDB2D6D14FF480600349086004208D
:1020300000F004F870BD0000140C014000E0401EE8
:102040000028FCD1704700002DE9FF4F8FB00646F5
:1020500017461C46DDE91C89F04800680990F048E5
:102060000568F04800680890EF4800680790494606
:10207000484603F0DDFF41460590404603F0D8FF97
:1020800021460390204603F0D3FF0290039903F00A
:1020900003FE0490059903F0FFFD069003F04AF853
:1020A0000E9020460E9903F0C3FF044640460E9959
:1020B00003F0BEFF804648460E9903F0B9FF814603
:1020C000D8480168D548006803F0B2FF0590D648AB
:1020D0000168D348006803F0ABFF0490059904F051
:1020E000AFF84FF08041069003F0A2FF0D90CE486C
:1020F0000168CC48006803F09BFF0590C848016860
:10210000C648006803F094FF0490059903F0C4FDED
:102110004FF08041069003F08BFF0C90C24801689D
:10212000006803F085FF0690BE480168006803F070
:102130007FFF0490BA480168006803F079FF0290BD
:10214000B6480168006803F073FF0190029904F03B
:1021500077F80390049904F073F80590069903F05A
:102160009BFD0B9048460C9903F062FF0690404699
:102170000B9903F05DFF0590069904F061F8824623
:1021800020460B9903F054FF069048460D9903F042
:102190004FFF0590069904F053F8834640460D9989
:1021A00003F046FF069020460C9903F041FF05908E
:1021B000069904F045F80A909C49504603F038FF10
:1021C00006909B480168069803F066FD98490860F0
:1021D0009649584603F02CFF0690964801680698E9
:1021E00003F05AFD9349086090490A9803F020FFD4
:1021F000069091480168069803F04EFD8E490860EC
:1022000051464FF07E5003F013FF3146059003F026
:1022100043FD069086480168069803F03DFD06469A
:1022200059464FF07E5003F003FF0590109903F0DC
:1022300033FD06907F480168069803F02DFD10904D
:102240004FF07E500A9903F0F3FE3946059003F0F3
:1022500023FD069078480168069803F01DFD0746A7
:102260003946079803F0E4FE04901099089803F0AB
:10227000DFFE029085F000403146009003F0D8FE6A
:102280000190029903F0DCFF0390049903F0D8FF5A
:102290006A49059003F0CCFE0690099903F0FCFC16
:1022A0005E4908601099079803F0C2FE3946049011
:1022B000089803F0BDFE02903046099903F0B8FE7D
:1022C0000190029903F0E8FC0390049903F0B8FF31
:1022D0005A49059003F0ACFE2946069003F0DCFC59
:1022E0004F4908603046079903F0A2FE3946049032
:1022F000284603F09DFE02901099099803F098FE7D
:102300000190029903F09CFF0390049903F0C4FC30
:102310004A49059003F08CFE0690089903F0BCFC36
:10232000404908603046089903F082FE0490284630
:10233000109903F07DFE39460290099803F078FE6B
:102340000190029903F0A8FC0390049903F078FF30
:102350003A49059003F06CFE0690079903F09CFC47
:102360003149086008460168006803F061FE059085
:102370002C480168006803F05BFE03902848016860
:10238000006803F055FE019024480168006803F0DE
:102390004FFE0090019903F07FFC0290039903F037
:1023A0007BFC0490059903F077FC069002F0C2FED6
:1023B0000E901A480E99006803F03AFE174908601B
:1023C00017480E99006803F033FE15490860154858
:1023D0000E99006803F02CFE1249086012480E990D
:1023E000006803F025FE104908601549B1F90400A2
:1023F00003F0BEFD1349049003F01AFE0B4905904B
:1024000003F016FE069010480168069803F044FC9D
:102410000D49086013B0BDE8F08F000004000020F3
:10242000080000200C000020100000206F12833AEA
:1024300014000020180000201C0000206F12033A36
:102440008E000020F1FF793D8402002070B5042643
:1024500000240120FFF71EF80446AB2C06D11248D9
:1024600000EB842011490860AB2070BD0E4800EBE2
:1024700084200E490860601C0B49891E01EB8025F1
:102480000CE00A4800680068401C02D1042630466F
:10249000EBE706480068001D04490860034800682F
:1024A000A842EED38020E0E7000001085800002099
:1024B00010B5752001F00AFC682801D0002010BD7D
:1024C00017A000F0BFFE00216B2001F025FC44F6B0
:1024D0002060FFF7B3FD0021192001F01DFC44F638
:1024E0002060FFF7ABFD00211A2001F015FC44F637
:1024F0002060FFF7A3FD18211B2001F00DFC44F61E
:102500002060FFF79BFD1F211C2001F005FC44F615
:102510002060FFF793FD07A000F094FE0120CEE7B6
:102520000D0A204D5055363035302020D5FDB3A34F
:10253000A3A100000D0A204D505536303530202023
:10254000B3F5CABCBBAFCDEAB3C9A3A1000000007C
:1025500001461E4A12681E4B1A601E4A1278D2B1FA
:102560001D4B1B8893FBF1F202EBD273C3F34F00B8
:10257000174A1268194B1B68D21A824225D34FF4AE
:102580000052174B5A610022124B1A700F4A126800
:10259000124B1A6019E0104B1B8893FBF1F202EB0F
:1025A000D273C3F34F000A4A12680C4B1B68D21A4D
:1025B00082420AD34FF40052094B1A610122054BA3
:1025C0001A70024A1268054B1A6070474C000020CE
:1025D000440000203C00002050000020400000206B
:1025E0000010014008B50121192001F041F8012136
:1025F0001148FFF73BFA01211048FFF737FA08208E
:10260000ADF8000003208DF8020010208DF80300C3
:1026100069460B48FFF7A0F94FF40050ADF80000F1
:1026200003208DF8020010208DF80300694605484C
:10263000FFF792F908BD00000004300000023000EE
:10264000000C01400010014010B5002415E00820E6
:102650001D49086080021D494861C820FEF701FD40
:102660004FF400501949086108201749091F0860F4
:10267000C820FEF7F6FC601CC4B2032CE7DB002484
:1026800015E0082010490860800210494861642064
:10269000FEF7E7FC4FF400500C49086108200A4996
:1026A000091F08606420FEF7DCFC601CC4B2032C28
:1026B000E7DB08200449091F0860800203494861DC
:1026C0006420FEF7CEFC10BD140C01400010014048
:1026D00010B5254840782449097840EA012023496B
:1026E0000988401A00B2224908801F48C0781E4954
:1026F000897840EA01201D494988401A00B21C49E6
:102700004880194840791849097940EA0120174959
:102710008988401A00B2164988801348407A1249C5
:10272000097A40EA012013490988401A00B2124987
:1027300008800D48C07A0C49897A40EA01200D4989
:102740004988401A00B20C4948800748407B064936
:10275000097B40EA012007498988401A00B20649EE
:10276000888000F00BF810BDF402002094000020D7
:102770007C0000209A0000208200002010B56348F1
:10278000007800285ED06248007870B90020614966
:102790000880488088806049086060490860604916
:1027A000086001205A49087010BD59480078401C43
:1027B000574908705B48B0F9000057490968084458
:1027C000554908605748B0F902005449096808445F
:1027D000524908605348B0F9040051490968084457
:1027E0004F4908604A480078FB2827D148480078BC
:1027F000401E4749087048480068097890FBF1F08E
:1028000000B244490880454800684149097890FB76
:10281000F1F000B23F494880414800683C490978DE
:1028200090FBF1F0A0F5006000B23A4988800020EA
:102830003749087035490870FEF74AFD4FF40050DB
:10284000394908613948007800285CD03848007858
:1028500070B9002037490880488088803649086070
:1028600036490860364908600120314908709BE705
:102870002F480078401C2E4908703248B0F90000FB
:102880002D49096808442C4908602E48B0F9020017
:102890002A4909680844294908602A48B0F904000F
:1028A0002749096808442649086021480078FB2820
:1028B00025D11F480078401E1D4908701E48006839
:1028C000097890FBF1F000B21A4908801B480068B3
:1028D0001749097890FBF1F000B216494880184872
:1028E00000681349097890FBF1F000B21149888023
:1028F00000200F4908700D490870FEF70BFD4FF4DA
:1029000000500949086100BF4EE70000B1000020F7
:10291000C400002094000020B8000020BC0000206B
:10292000C00000207C00002000100140B00000200A
:10293000D40000209A000020C8000020CC00002015
:10294000D00000208200002010B50E24FFF7ACFA62
:1029500008B9002010BDD020FFF738FBFFF704FBBB
:1029600018B9FFF7DFFA0020F4E73B20FFF72EFB52
:10297000FFF7FAFAFFF798FAD120FFF727FBFFF7E6
:10298000F3FA07E0FFF75AFAC4F10D01084A505470
:10299000FFF70EFA601EC0B20400F3D1FFF74EFA43
:1029A00003494873FFF728FAFFF7BCFA0120D1E783
:1029B000F402002010B53B2001F088F91C49087092
:1029C0003C2001F083F91A4948703D2001F07EF95E
:1029D000174988703E2001F079F91549C8703F20E9
:1029E00001F074F912490871402001F06FF91049A3
:1029F0004871432001F06AF90D490872442001F042
:102A000065F90B494872452001F060F90849887260
:102A1000462001F05BF90649C872472001F056F9DB
:102A200003490873482001F051F90149487310BD6A
:102A3000F402002000BFFEE708B50121042000F0E9
:102A400017FE0F20ADF8000003208DF802001820BB
:102A50008DF8030069460448FEF77EFF01F022FD71
:102A600002A000F0EFFB08BD000801400D0A205055
:102A7000574D202020202020B3F5CABCBBAFCDEAA3
:102A8000B3C9A3A10000000030B5B0F57A7F01DD25
:102A90004FF47A70002800DA0020B1F57A7F01DD6A
:102AA0004FF47A71002900DA0021B2F57A7F01DD56
:102AB0004FF47A72002A00DA0022B3F57A7F01DD42
:102AC0004FF47A73002B00DA00234FF08045A8867C
:102AD0002987AA87014D2B8030BD000040000040AF
:102AE000704700002DE9F04100257948C078401D6D
:102AF000C6B2032404E07648005D4540601CC4B2C1
:102B0000B442F8DB7248805DA84201D0BDE8F08194
:102B10006F480078242800D0F8E76D4840784D28A9
:102B200000D0F3E76A4880783C2800D0EEE7684898
:102B30000079692847D108206649086064484079CF
:102B40006349897940EA01206349C8806048C079B7
:102B50005F49097A40EA01205F4988805C48407AF1
:102B60005B49897A40EA01205B4948805848C07A2D
:102B70005749097B40EA0120574908805448407B67
:102B80005349897B40EA0120534908815048C07B62
:102B90004F49097C40EA01204F4948814C48407C1C
:102BA0004B49897C40EA01204B4988814848C07CD8
:102BB0004749097D40EA01204749C881084600F09D
:102BC00089FE00F0E1FD42480079CA286BD14FF43C
:102BD0000050424908613E49487903F0E1F907464F
:102BE0003F4903F0C7F83F4908603949887903F045
:102BF000D7F907463C4903F0BDF83A4948603449E3
:102C0000C87903F0CDF9374988600846006837492C
:102C100008603448406848603248806888602C49C1
:102C2000087A03F0BDF907462D4903F0A3F83049AF
:102C300008602749487A03F0B3F907462A4903F0A8
:102C400099F82B4948602249887A03F0A9F9284964
:102C50008860084600682749086025484068486041
:102C60002348806888601A49C87A03F099F90746B2
:102C70001B4903F07FF8204908601549087B03F0E1
:102C80008FF90746184903F075F81B494860104949
:102C9000487B03F085F918498860FEF75DFB4FF427
:102CA00000500E4948610A480079CD2801D1FEF74D
:102CB000E7F907480079CE2801D1FEF7E7F9044883
:102CC0000079D02801D100F059FA00BF1EE70000BA
:102CD00002030020140C0140740200200010014087
:102CE00000002041A402002000007A44900200204D
:102CF000CC020020B8020020E00200201CB5052212
:102D00001049302000F01EF905226946102000F01D
:102D1000D1F8002408E01DF804000A49095D884242
:102D200000D003E0601CC4B2052CF4DB00BF052C0E
:102D300003D105A000F086FA02E00AA000F082FAB2
:102D40001CBD0000D60000200D0A204E5246323431
:102D50004C303120B3F5CABCBBAFB3C9B9A6A3A1EF
:102D6000000000000D0A204E524632344C30312013
:102D7000B3F5CABCBBAFCAA7B0DCA3A1000000007A
:102D800070B5072000F0B6F8044614F0400F13D0D9
:102D9000602000F0AFF80546202D08D12A460F49E3
:102DA000612000F087F800200D49088003E0FF2132
:102DB000E22000F0E5F800BF14F0100F06D014F088
:102DC000010F03D0FF21E12000F0DAF800F052F803
:102DD0002146272000F0D4F870BD00000203002037
:102DE000E200002070B505460C4604201E4908602C
:102DF000FF21E12000F0C4F8FF21E22000F0C0F83C
:102E000005221A49302000F09DF8052218492A2091
:102E100000F098F80121212000F0B2F801212220D1
:102E200000F0AEF81A21242000F0AAF82946252047
:102E300000F0A6F82021312000F0A2F80F21262072
:102E400000F09EF8012C04D10E21202000F098F80B
:102E500005E0022C03D10F21202000F091F804207E
:102E60000149091F086070BD140C0140D600002004
:102E7000DB00002010B50420054908600F21202048
:102E800000F07EF804200249091F086010BD000010
:102E9000140C014010B50420054908600E212020C3
:102EA00000F06EF804200249091F086010BD000000
:102EB000140C01402DE9F04107460D46164610203E
:102EC0000B490860384600F04DFE8046002405E0BE
:102ED000002000F047FE2855601CC4B2B442F7DB66
:102EE00010200349091F08604046BDE8F08100003A
:102EF0001408014070B504461020074908602046B8
:102F000000F030FE002000F02DFE054610200249A2
:102F1000091F0860284670BD1408014070B50446BA
:102F20000D46FFF7B7FF0420054908602A462146F1
:102F3000A02000F007F804200149091F086070BDB7
:102F4000140C01402DE9F04107460D4616461020AD
:102F50000A490860384600F005FE8046002404E077
:102F6000285D00F0FFFD601CC4B2B442F8DB102005
:102F70000249091F08604046BDE8F081140801407D
:102F800070B505460C46102007490860284600F039
:102F9000E9FD0646204600F0E5FD10200249091F24
:102FA0000860304670BD00001408014070B5002173
:102FB00000230F22C4780CB3164C246804F4E06498
:102FC000C4F5E064210AC1F10403CA40447804FA5C
:102FD00003F184781440214309010F4C0678A15570
:102FE000047804F01F050124AC4005786D114FF002
:102FF000E02606EB8505C5F8004109E0047804F0F9
:103000001F050124AC40054D0678761145F8264091
:1030100070BD00000CED00E000E400E080E100E0A5
:1030200002490143024A1160704700000000FA059E
:103030000CED00E02DE9F0472E480088401C2D499A
:10304000088008460088012803D1FFF74BFD00F0F7
:10305000A7FD28480088642190FBF1F201FB1200D3
:1030600008B9FFF78DFE23480088B0F57A7F07DBAB
:1030700008202149086001201E4908801F49087066
:103080001F49488802F08CFF80461D49088802F0DD
:1030900087FF81464FF0804102F0CAFF0746414654
:1030A00002F068FE0646174902F0C2FF05461649BF
:1030B00002F0BEFF044602F01FFF00B21349088071
:1030C0000846B0F90000B0F5A57F0EDD1048807B02
:1030D00010F0020F04D04FF400500E49086107E0D1
:1030E0004FF400500B49486102E00220FFF730FA2C
:1030F000BDE8F087E2000020100C01403500002000
:10310000A80000209A99993F0000C842AC00002016
:10311000740200200010014008B54FF4A060FFF7D2
:103120007FFF1D208DF8000000208DF80100012098
:103130008DF802008DF803006846FFF737FF062080
:103140008DF8000001208DF8010000208DF80200AC
:1031500001208DF803006846FFF728FF25208DF831
:10316000000002208DF8010000208DF802000120EF
:103170008DF803006846FFF719FF08BD10B54FF43E
:1031800000501649086116481649086016484860FC
:103190004FF0824088601248144908601248486025
:1031A0004FF0824088601248124908600020486051
:1031B0004FF0804088600E480F490860002048604A
:1031C0004FF0804088604FF082400C4908600C4806
:1031D00048608860FEF7C0F810BD00000010014094
:1031E000CDCC9C40A40200200AD7A33C9002002032
:1031F0003333B33FCC020020B8020020E0020020AD
:10320000CDCCCC3D7047000010B504460A4801788B
:103210000078401C084A1070084844540848008848
:1032200010F0800F06D1012240F2277104480C38BB
:1032300001F018FA10BD000049000020280100200C
:103240000C38014070B505462C4603E02078FFF7A6
:10325000DBFF641C20780028F8D170BD30B589B040
:1032600024208DF804004D208DF805003E208DF8B7
:10327000060006208DF807006C208DF808001B4919
:1032800048681B4902F0D4FE054602F035FE04B240
:10329000E0B28DF80900200A8DF80A001349886809
:1032A000134902F0C5FE054602F026FE04B2E0B264
:1032B0008DF80B00200A8DF80C000C48006880F097
:1032C0000045284602F018FE04B2E0B28DF80D0069
:1032D000200A8DF80E0001A8FEF710FC8DF80F00F3
:1032E000202101A8FFF71AFE09B030BD840200209A
:1032F0000000204130B589B024208DF804004D2015
:103300008DF805003E208DF8060017208DF8070087
:103310000B208DF808005F48B0F90040E0B28DF84E
:103320000900200A8DF80A004FF08040808E00F5D9
:103330007A70C0B28DF80B004FF08040808E00F59F
:103340007A70000A8DF80C004FF08040008F00F575
:103350007A70C0B28DF80D004FF08040008F00F5FC
:103360007A70000A8DF80E004FF08040808F00F5D3
:103370007A70C0B28DF80F004FF08040808F00F55A
:103380007A70000A8DF810004348008800F57A70C2
:10339000C0B28DF811004FF08040B0F8400000F549
:1033A0007A704FEA10208DF812003C4908683C49B9
:1033B00002F03EFE054602F0BBFDC0B28DF81300E0
:1033C00036494868374902F033FE054602F0B0FD41
:1033D000C0B28DF814003149886802F0A9FDC0B26E
:1033E0008DF81500304908682D4902F021FE054688
:1033F00002F09EFDC0B28DF816002B49486829499D
:1034000002F016FE054602F093FDC0B28DF81700DB
:103410002549886802F08CFDC0B28DF81800234958
:1034200008681F4902F004FE054602F081FDC0B2A3
:103430008DF819001D4948681A4902F0F9FD054642
:1034400002F076FDC0B28DF81A001849886802F0C3
:103450006FFDC0B28DF81B00154800788DF81C0078
:1034600013480088000A8DF81D0011480068000C00
:103470008DF81E000E480068000E8DF81F0001A890
:10348000FEF73CFB8DF82000202101A8FFF746FD48
:1034900009B030BDAC00002040000040A402002074
:1034A0000000204100007A44CC020020E00200200D
:1034B000B400002070B588B024208DF800004D20A5
:1034C0008DF801003E208DF8020012208DF80300D7
:1034D00066208DF804004549B1F90000C11700EBE2
:1034E00091718C10E0B28DF80500200A8DF806006D
:1034F0003E49B1F90200C11700EB91718C10E0B2A6
:103500008DF80700200A8DF808003849B1F9040049
:10351000C11700EB91718C10E0B28DF80900200A00
:103520008DF80A003248B0F90240E0B28DF80B0085
:10353000200A8DF80C002E48B0F90040E0B28DF85A
:103540000D00200A8DF80E0029488088404204B200
:10355000E0B28DF80F00200A8DF810002549B1F96E
:10356000000002F005FD06464FF07D5102F060FDBF
:10357000054602F0C1FC04B2E0B28DF81100200A49
:103580008DF812001B49B1F9020002F0F1FC064669
:103590004FF07D5102F04CFD054602F0ADFC04B247
:1035A000E0B28DF81300200A8DF814001149B1F92A
:1035B000040002F0DDFC06464FF07D5102F038FDBC
:1035C000054602F099FC04B2E0B28DF81500200A1D
:1035D0008DF816006846FEF791FA8DF81700202145
:1035E0006846FFF79BFC08B070BD00007C0000201F
:1035F000820000208800002001460020034A506815
:1036000020F4404008435060704700000010024022
:1036100029B1064A52690243044B5A6104E0034A45
:1036200052698243014B5A6170470000001002400A
:1036300029B1064AD2690243044BDA6104E0034A25
:10364000D2698243014BDA617047000000100240EA
:1036500029B1064A12690243044B1A6104E0034A85
:1036600012698243014B1A6170470000001002404A
:1036700029B1064A92690243044B9A6104E0034A65
:1036800092698243014B9A6170470000001002402A
:1036900029B1064AD2680243044BDA6004E0034AC7
:1036A000D2688243014BDA6070470000001002408C
:1036B00030B500210022002400232D4D6D6805F057
:1036C0000C0121B1042905D0082923D105E0294D99
:1036D000056022E0284D05601FE0254D6D6805F46A
:1036E0007012234D6D6805F48034022505EB92427B
:1036F0001CB9224D554305600BE01D4D6D6815F456
:10370000003F03D01B4D5543056002E01A4D554361
:10371000056002E0174D056000BF00BF144D6D68E5
:1037200005F0F0010909164D6B5C0568DD40456048
:103730000F4D6D6805F4E061090A114D6B5C456839
:10374000DD4085600A4D6D6805F46051C90A0C4D75
:103750006B5C4568DD40C560054D6D6805F4404112
:10376000890B084D6B5CC568B5FBF3F5056130BD91
:103770000010024000127A000024F40000093D000D
:10378000E4000020F400002010B54C48008840F20E
:103790001451884205DA4A480078401C48490870AC
:1037A00002E0002046490870454800780F2814DDE3
:1037B00044480078012810D10020424908704FF495
:1037C0000050414948616420FDF74BFC4FF4005024
:1037D0003D4908616420FDF744FC3848008840F208
:1037E0001451884213DA3548408888420FDA33484A
:1037F0008088B0F5AF6F0ADD30488088B0F5C86FBB
:1038000005DA32480078401C3049087002E0002098
:103810002E4908702D480078962812DD2948007836
:1038200078B901202749087040032749486164207E
:10383000FDF717FC4FF40050234908616420FDF7A1
:1038400010FC1E48008840F2145188420DDA1B48D3
:103850004088884209DA19488088884205DA1C487D
:103860000078401C1A49087002E0002018490870CE
:103870001748007864281FDD002015490870FDF7FF
:1038800005FCFDF7FDFB4FF400500F494861322065
:10389000FDF7E7FB4FF400500B4908613220FDF7BC
:1038A000E0FB4FF40050084948613220FDF7D9FB96
:1038B0004FF400500449086110BD0000740200205C
:1038C00036000020350000200010014037000020A5
:1038D000380000200188B1F57A7F02DC4FF47A715C
:1038E00000E0018801800188B1F5FA6F02DB4FF436
:1038F000FA6100E0018801808188B1F57A7F02DCFD
:103900004FF47A7100E0818881808188B1F5FA6F87
:1039100002DB4FF4FA6100E081888180C188B1F553
:103920007A7F02DC4FF47A7100E0C188C180C188DF
:10393000B1F5FA6F02DB4FF4FA6100E0C188C18093
:103940004188B1F57A7F02DC4FF47A7100E041885A
:1039500041804188B1F5FA6F02DB4FF4FA6100E073
:10396000418841800189B1F57A7F02DC4FF47A7198
:1039700000E0018901810189B1F5FA6F02DB4FF4A2
:10398000FA6100E0018901814189B1F57A7F02DCA9
:103990004FF47A7100E0418941814189B1F5FA6FB4
:1039A00002DB4FF4FA6100E0418941818189B1F580
:1039B0007A7F02DC4FF47A7100E08189818181890C
:1039C000B1F5FA6F02DB4FF4FA6100E08189818181
:1039D0007047000000B589B001211920FFF748FEAB
:1039E00001210803FFF744FEE020ADF80C000120A0
:1039F0008DF80E0018208DF80F0003A93348FDF74D
:103A0000ABFF0420ADF80C0001208DF80E00102053
:103A10008DF80F0003A92E48FDF79EFF1020ADF88A
:103A20000C0001208DF80E0010208DF80F0003A966
:103A30002648FDF791FF0120ADF80C0003208DF81A
:103A40000E0048208DF80F0003A92148FDF784FFE0
:103A500000210120FDF760FF0120019000208DF87A
:103A600008000C208DF8090001208DF80A0001A83B
:103A7000FDF788FE10201549103108600020ADF8D0
:103A800010004FF48270ADF812000020ADF8140061
:103A9000ADF81600ADF818004815ADF81A00102062
:103AA000ADF81C000020ADF81E000720ADF8200086
:103AB00004A9084800F038F80121064800F01AF877
:103AC00005A0FFF7BFFB09B000BD000000080140E2
:103AD000000C0140003001400D0A205350493120B4
:103AE00020202020B3F5CABCBBAFCDEAB3C9A3A147
:103AF0000000000021B1028842F04002028004E090
:103B000002884FF6BF731A400280704702460020B9
:103B100013890B4201D0012000E0002070470146CC
:103B2000888970478181704710B50022028802F4AD
:103B300041520B884C8823438C882343CC882343F1
:103B40000C8923434C8923438C892343CC89234309
:103B50001A430280838B4FF2FF74234083830B8AC6
:103B6000038210BD10B5044600BF02210A48FFF7CA
:103B7000CDFF0028F9D021460748FFF7D3FF00BF4B
:103B800001210548FFF7C2FF0028F9D00248FFF7DE
:103B9000C6FFC0B210BD00000030014070470000F9
:103BA00010B510480078401C0E490870084600788F
:103BB000012804D0022805D003280CD105E0FFF726
:103BC00079FC0CE0FFF74AFB09E0FFF793FB0020CC
:103BD0000449087003E000200249087000BF00BFDC
:103BE00010BD0000E000002010B500F001F810BD8D
:103BF0000CB50020019000903248006840F48030FD
:103C00003049086000BF2F48006800F40030009081
:103C10000198401C0190009818B90198B0F5A06F68
:103C2000F1D12848006810F4003F02D00120009034
:103C300001E0002000900098012842D1224800684D
:103C400040F01000204908600846006820F003009A
:103C500008600846006840F00200086019484068A3
:103C6000184948600846406848600846406840F483
:103C7000806048600846406820F47C104860084630
:103C8000406840F4F81048600846006840F08070D2
:103C9000086000BF0B48006810F0007FFAD00948A8
:103CA000406820F00300074948600846406840F03B
:103CB0000200486000BF0348406800F00C0008287C
:103CC000F9D10CBD001002400020024070B504463E
:103CD000FEF7EAF808B9002070BDD020FEF776F9AB
:103CE000FEF742F918B9FEF71DF90020F4E7204667
:103CF000FEF76CF9FEF738F9FEF7D6F8D120FEF79B
:103D000065F9FEF731F9FEF799F80546FEF774F804
:103D1000FEF708F92846DFE770B505460C46FEF7C2
:103D2000C3F808B9002070BDD020FEF74FF9FEF7A8
:103D30001BF918B9FEF7F6F80020F4E72846FEF75D
:103D400045F9FEF711F92046FEF740F9FEF70CF9A8
:103D5000FEF7E8F80120E6E710B51348006840F0E8
:103D600001001149086008464068104908400E49A2
:103D70004860084600680E4908400B49086008463C
:103D8000006820F4802008600846406820F4FE00A7
:103D900048604FF41F008860FFF726FF4FF0006077
:103DA0000449086010BD0000001002400000FFF848
:103DB000FFFFF6FE08ED00E01148008810F0010F4B
:103DC0001BD04FF6FE700E4908800E48007800B9EF
:103DD00070470D480068401C0B4908600B4800788C
:103DE000401C0A4908700A480078401C08490870BD
:103DF00008480078401C0749087000BFE8E7000049
:103E000010040040340000204C000020000000207E
:103E1000010000200200002021B1028842F080024F
:103E2000028004E002884FF67F731A4002807047D8
:103E3000CA430282704721B1028842F00102028027
:103E400004E002884FF6FE731A40028070470000BB
:103E500010B504466848844208D10121C014FFF718
:103E600017FC0021E014FFF713FCC4E0B4F1804F0D
:103E700008D101210846FFF7EBFB00210120FFF7E5
:103E8000E7FBB8E05D48844208D101210220FFF73A
:103E9000DFFB00210220FFF7DBFBACE05848844247
:103EA00008D101210420FFF7D3FB00210420FFF7F4
:103EB000CFFBA0E05348844208D101210820FFF73E
:103EC000C7FB00210820FFF7C3FB94E04E48844263
:103ED00008D101211020FFF7BBFB00211020FFF7C4
:103EE000B7FB88E04948844208D101212020FFF730
:103EF000AFFB00212020FFF7ABFB7CE0444884426D
:103F000008D101214014FFF7C3FB00216014FFF723
:103F1000BFFB70E03F48844209D10121C804FFF78C
:103F2000B7FB00214FF40020FFF7B2FB63E03A48F3
:103F3000844209D101210805FFF7AAFB00214FF4B3
:103F40008010FFF7A5FB56E03448844209D10121D7
:103F50004805FFF79DFB00214FF40010FFF798FB89
:103F600049E02F48844208D101214020FFF770FB2F
:103F700000214020FFF76CFB3DE02A48844208D135
:103F800001218020FFF764FB00218020FFF760FB08
:103F900031E02548844208D101218015FFF758FB04
:103FA0000021A015FFF754FB25E02048844209D1E9
:103FB00001210804FFF76CFB00214FF48030FFF76C
:103FC00067FB18E01A48844209D101214804FFF731
:103FD0005FFB00214FF40030FFF75AFB0BE0154860
:103FE000844208D101218804FFF752FB00214FF4DD
:103FF0008020FFF74DFB10BD002C01400004004065
:1040000000080040000C0040001000400014004078
:1040100000340140004C0140005001400054014078
:1040200000180040001C00400020004000400140FB
:1040300000440140004801401AB183890B43838149
:1040400002E083898B4383817047000070B50024B0
:1040500000220023058C4FF6FE7635400584028C45
:104060008388048B4FF68F752C40B51E2C400D882D
:104070002C43751E2A400D892A434D882A43144D2E
:10408000A8420BD0134DA84208D0134DA84205D02A
:10409000124DA84202D0124DA84213D14FF6F77527
:1040A0002A404D892A434FF6FB752A408D882A43C2
:1040B0004FF6FF652B404FF6FF552B408D892B4364
:1040C000CD892B4383800483CD888586028470BD8F
:1040D000002C0140003401400040014000440140F8
:1040E000004801400A460021018B4FF6F773194042
:1040F000114301837047000070B5002400220023A3
:10410000058C4FF6EF7635400584028C8388048B4E
:1041100048F6FF752C404FF6FF452C400D884FF6B2
:10412000FF7606EA05252C434FF6DF752A400D89F8
:1041300006EA05152A434D8806EA05152A43154D5A
:10414000A84202D0144DA8421DD14FF67F752A40D7
:104150004D894FF6FF7606EA05152A434FF6BF75DF
:104160002A408D8806EA05152A434FF6FF352B4075
:104170004FF2FF752B408D8906EA85052B43CD89CB
:1041800006EA85052B4383800483CD880587028456
:1041900070BD0000002C0140003401400A4600219F
:1041A000018B4FF2FF7319404FF6FF7303EA0223AE
:1041B000194301837047000070B5002400220023DA
:1041C000058C4FF6FF6635400584028C8388848B0E
:1041D0004FF68F752C404FF6FC752C400D882C4304
:1041E0004FF6FF552A400D894FF6FF7606EA052562
:1041F0002A434D8806EA05252A43154DA84202D0D8
:10420000144DA8421DD14FF2FF752A404D894FF63B
:10421000FF7606EA05252A434FF6FF352A408D88AA
:1042200006EA05252A434EF6FF752B404DF6FF752D
:104230002B408D8906EA05152B43CD8906EA051525
:104240002B4383808483CD888587028470BD0000E2
:10425000002C0140003401400A460021818B4FF6BA
:10426000F7731940114381837047000070B5002235
:1042700000230024058C4EF6FF7635400584038C20
:104280008488828B48F6FF752A404FF6FF452A4006
:104290000D884FF6FF7606EA05252A434DF6FF7591
:1042A0002B400D8906EA05352B434D8806EA053576
:1042B0002B430B4DA84202D00A4DA84208D14BF621
:1042C000FF752C408D894FF6FF7606EA85152C4345
:1042D00084808283CD88A0F84050038470BD0000A4
:1042E000002C0140003401400A460021818B4FF22E
:1042F000FF7319404FF6FF7303EA022319438183CA
:1043000070470000002202881D4B98420ED01D4BC2
:1043100098420BD0B0F1804F08D01B4B984205D08B
:104320001A4B984202D01A4B984204D14FF68F7321
:104330001A404B881A43174B984207D0164B9842A5
:1043400004D04FF6FF431A40CB881A4302808B8873
:1043500083850B8803850A4B98420BD0094B984202
:1043600008D00E4B984205D00D4B984202D00D4B11
:10437000984201D10B7A03860123838270470000A3
:10438000002C0140003401400004004000080040BF
:10439000000C0040001000400014004000400140AC
:1043A00000440140004801407CB520201D490860C0
:1043B000FEF7CAFA30B91C480068401C1A49086068
:1043C000FEF7F8FAFEF784F918491948FBF746FF9B
:1043D00018491948FDF750FC18491648FDF72AFC02
:1043E0001249B1F9040001F0C3FD04460F49B1F9C7
:1043F000020001F0BDFD05460C49B1F9000001F0D5
:10440000B7FD06460D4BCDE900549A685968186807
:104410003346FDF719FEFEF70DFE20200149091D68
:1044200008607CBD100C0140B40000208800002012
:104430007C0000208E000020820000206802002006
:1044400010B54FF48070074908600748FDF766FB18
:1044500006490548FCF764F94FF480700149091DCD
:10446000086010BD100C014084020020740200207E
:1044700010B54FF4007007490860074802780749F3
:104480000748FCF791FA4FF400700249091D0860D3
:1044900010BD0000100C0140350000207402002007
:1044A0006802002000B587B001210846FFF7C0F878
:1044B00040F2E730ADF814000320ADF81000002002
:1044C000ADF81600ADF8120004A94FF08040FFF7D8
:1044D00019FF6020ADF800000120ADF802000020B7
:1044E000ADF80600ADF8080069464FF08040FFF7D0
:1044F000ADFD0821C806FFF7F5FD69464FF0804085
:10450000FFF7FAFD0821C806FFF748FE69464FF09D
:104510008040FFF751FE0821C806FFF79DFE69465F
:104520004FF08040FFF7A2FE0821C806FFF7DCFE2F
:1045300001218807FFF770FC01218807FFF77BFC4A
:1045400007B000BD3EB5044601210220FFF770F818
:10455000124804801248FFF77BFC124890FBF4F0ED
:1045600080B2ADF804004720ADF800000020ADF89F
:104570000600ADF8020069460948FFF7C3FE0121B5
:104580000748FFF755FC012211460548FFF754FD87
:1045900001210348FFF74FFC3EBD00005000002002
:1045A0000004004040420F0008B50821184800F000
:1045B0004CF810B1164800F0E7F81548008810F0E4
:1045C000400F18D0134801780078401C114A107031
:1045D0001148405C0E49091D0880104600780F49BB
:1045E0000978884207D10A480C30008820F0800002
:1045F00007490C3108800648008810F0200F05D0CC
:104600000348001D008840B2009000BF08BD0000B4
:104610000038014048000020280100204900002007
:1046200001F40072B2F5007F00D100BFCA430280DE
:10463000704721B1828942F40052828104E082896C
:104640004DF6FF731A408281704702460020B1F593
:10465000007F00D100BF13880B4201D0012000E091
:1046600000207047F0B503460024002600250020F6
:10467000A1F510676A3F00D100BF1846C1F342148C
:1046800001F01F06012707FA06F5012C01D10C30B5
:1046900004E0022C01D1103000E014301AB1076898
:1046A0002F43076002E00768AF430760F0BD0000DA
:1046B0002DE9F04786B005460E460024A24600BF0D
:1046C000A1460027B08900B100BF2F462C8A4CF6C6
:1046D000FF700440F08804432C82AC894EF6F3103E
:1046E0000440B08831890843718908430443AC8190
:1046F000AC8A4FF6FF400440B0890443AC8201A865
:10470000FEF7D6FF1F48874202D1DDF810A001E076
:10471000DDF80CA0A88910F4004F08D00AEBCA00FD
:1047200000EB0A1031684900B0FBF1F807E00AEB32
:10473000CA0000EB0A1031688900B0FBF1F8642070
:10474000B8FBF0F004012009642101FB1089A8895D
:1047500010F4004F08D0322000EBC900B0FBF1F09C
:1047600000F00700044308E0322000EB0910642148
:10477000B0FBF1F000F00F0004432C8106B0BDE85F
:10478000F08700000038014001468888C0F3080027
:104790007047000010B586B0044601210520FEF7E1
:1047A00067FF01218803FEF763FF4FF40070ADF847
:1047B000140018208DF8170003208DF8160005A9A5
:1047C0001848FDF7C9F84FF48060ADF814000420D4
:1047D0008DF8170003208DF8160005A91148FDF784
:1047E000BBF801940020ADF80800ADF80A00ADF860
:1047F0000C00ADF810000C20ADF80E0001A90A481D
:10480000FFF756FF012240F225510748FFF72AFF24
:1048100001210548FFF70DFF40210348FFF700FF86
:1048200006B010BD000801400038014000BFFEE79F
:10483000490050EAC12018BF04204A0D18BF40F0BB
:10484000010040F2FF72B2EB515F08BF40F002007E
:10485000012808BF052070472DE9F0474FF0060AF0
:10486000062600250027A8464FF0FF397448B0F807
:1048700000A0744806885FEA0A0074D0A0F56E4074
:10488000EE382AD0A0F5885011386DD146B96C4861
:10489000FCF7C2FF0446042C1ED02046BDE8F0877A
:1048A000A6F56E40EE3810D16548FCF7B5FF04461A
:1048B000042C01D02046F1E700216248FCF7ECFF10
:1048C0000446042C08D02046E8E7FCF70FFE044617
:1048D000042C01D02046E1E7AEE07EBB002522E0BB
:1048E0005748C088584931F81510884201D10FFA4D
:1048F00085F94D4515D0544931F815005349FCF759
:1049000095FE8046B8F1010F0BD04F4931F81500E4
:104910004E490988FCF7BAFE0746042F01D03846F5
:10492000BCE7681C85B2102DDADB00214448FCF797
:10493000B3FF0446042C02D02046AFE707E041480D
:10494000FCF76AFF0446042C1FD02046A6E7A6F514
:104950007F40FF3812D13B48FCF75EFF0446042C31
:1049600003D020469AE711E05EE000213448FCF7CE
:1049700093FF0446042C08D020468FE7FCF7B6FDD1
:104980000446042C01D0204688E755E036B9FCF7F0
:10499000ADFD0446042C46D020467FE7A6F57F40B7
:1049A000FF3807D12748FCF737FF0446042C3AD0DC
:1049B000204673E7002523E02248801D0088224915
:1049C00031F81510884201D10FFA85F94D4515D0FF
:1049D0001D4931F815001D49FCF728FE8046B8F145
:1049E000010F0BD0184931F8150018490988FCF758
:1049F0004DFE0746042F01D038464FE7681C85B2AC
:104A0000102DD9DB00210F48FCF746FF0446042C8B
:104A100001D0204642E70A48FCF7FEFE0446042C7B
:104A200001D020463AE707E0FCF760FD0446042C7D
:104A300001D0204632E700BF00BF04202EE700006F
:104A400000000108000401085C0000205400002060
:104A50002DE9F0414F1E00EBC7010446D1E90001EA
:104A600015461E4637F006020DD02A46334600F0A2
:104A70000DFE7F1E04EBC703D3E9002300F0FEFB0D
:104A800037F00602F1D1022F25D0042F13D0062FC4
:104A900018BFBDE8F0812A46334600F0F7FDD4E99F
:104AA0000A2300F0EBFB2A46334600F0EFFDD4E981
:104AB000082300F0E3FB2A46334600F0E7FDD4E983
:104AC000062300F0DBFB2A46334600F0DFFDD4E985
:104AD000042300F0D3FB2A46334600F0D7FDD4E987
:104AE000022300F0CBFB2A46334600F0CFFDD4E989
:104AF0000023BDE8F04100F0C1BB0000024A0020E5
:104B0000110701F044BC000001FDFFFF80F3108895
:104B1000704700002DE9F04D904F21F0004A86B01B
:104B200005460C46BA4530DBAAEB070028430CD0FB
:104B30008B48824501DC1CD1DDB106B02846BDE8BA
:104B4000F04D4FF0010201F022BC864A864B284608
:104B500000F09CFD07460E46844A854B28462146B8
:104B600000F094FD06B03A463346BDE8F04D00F043
:104B700085BB0120FBF730FB06B00022BDE8F04DFD
:104B800013461046114600F029BC7A48824542DAA5
:104B9000BAF1795F0BDA2846FFF74AFE042808BF0E
:104BA000FFF7ACFF284606B02146BDE8F08D2A4647
:104BB0000B46104600F06AFD834602466E480E46DC
:104BC0000B4606217844FFF743FF5A46334600F070
:104BD0005DFD804669488A465A463346042178443A
:104BE000FFF736FF5A46334600F050FD00223B46A1
:104BF00000F044FB02460B464046514600F0EEFBF7
:104C00002A46234600F042FD06B02A462346BDE868
:104C1000F04D00F033BB284624F0004100223D4611
:104C20003B4600F031FE4FF0FF3201F0B0FB06468C
:104C3000024653480F460B4606217844FFF708FF0B
:104C400032463B4600F022FDCDE900014D48324698
:104C50003B4604217844FFF7FBFE32463B4600F01A
:104C600015FD00222B4600F009FB834602913046D9
:104C7000394600F0ABFA804643480D46504517DCF4
:104C8000DDE900015A46029B00F0A8FB42462B4694
:104C900000F0FCFC42462B4600F0F0FA012201F045
:104CA00076FB304A304B00F0E1FE304A304B4CE0AE
:104CB0004FF0000A52460B46404600F0DFFACDE9BD
:104CC000031052462B461046194600F0DFFC3246D0
:104CD0003B4600F0D9FDDDE9033200F07FFB0646DC
:104CE0000F46DDE900015A46029B00F077FB834640
:104CF000009101223046394601F049FB194A1A4B0E
:104D000000F0C2FD06460F4601224046294601F04A
:104D10003EFB5A46009B00F0B9FC32463B4600F091
:104D2000A5FE07460E4601225046294601F02FFBFC
:104D30000E4DDFF858802A46434600F0A5FD3A465E
:104D4000334600F0A1FD2A46434600F09DFD002CAD
:104D5000D8BF81F0004106B0BDE8F08D0000F03F03
:104D60000000F07F075C143326A6913C182D4454B4
:104D7000FB21F93F0000E03F581800006E180000CA
:104D8000E2170000F81700003333EF3FFB21E93F43
:104D90002DE9F84F04460D4621F00040009174497A
:104DA000814213DC7349884201DC08D13CB12046C2
:104DB0002946BDE8F84F4FF0010201F0E8BA6E480D
:104DC000002DCCBF6D496E49BDE8F88F6D49814219
:104DD00011DD6D498142D8BF4FF0FF366DDD2046B1
:104DE0002946FFF725FD042808BFFFF787FE204668
:104DF0002946BDE8F88F6549654F25F00045814299
:104E000033DD6449814219DD002632464FF080438C
:104E10002046294600F032FA80468A460122204682
:104E2000294601F0B4FA00223B4600F01FFE42463C
:104E3000534600F0D3FA04460D463EE00126002218
:104E4000BA463B462046294600F018FA80460F46EF
:104E5000002253462046294600F008FE42463B46C3
:104E600000F0BCFA04460D4627E04B4981421BDDA9
:104E7000DFF828810226002243462046294600F01A
:104E800005FC00223B4600F0F9F907468A4600225D
:104E900043462046294600F0E9FD3A46534600F0D5
:104EA0009DFA04460D4608E0032622462B460020C4
:104EB0003B4900F093FA04460D4622462B46104625
:104EC000194600F0E3FB8B46824602460B4600F093
:104ED000DDFB07460246334888460B4606217844E8
:104EE000FFF7B6FD52465B4600F0D0FB82462E48E7
:104EF0008B463A46434605217844FFF7A9FD3A46DA
:104F0000434600F0C3FB02460B46002E504659466E
:104F10000CDA00F0B3F922462B4600F0B7FB01B0E3
:104F200022462B46BDE8F04F00F0AEBC00F0A6F9DB
:104F300022462B4600F0AAFB1C4A7A4402EBC60329
:104F4000D3E9002300F092FD22462B4600F08EFDAF
:104F5000174A7A4402EBC603D3E9002300F094FC1D
:104F6000009A002AB8BF81F00041BDE8F88F000028
:104F7000000010440000F07F182D4454FB21F93F3D
:104F8000FB21F9BF0000DC3F0000203E0000F33FA2
:104F90000000F03F0000E63F008003400000F83FC3
:104FA0000000F0BFF6150000B41500005215000017
:104FB0001A1500002DE9F04D9446CCF1000423F0C1
:104FC00000464CEA0404524F46EAD4749A46884696
:104FD00021F00042BC4206D8454240EA050442EABC
:104FE000D474BC4204D9BDE8F04D624600F046B925
:104FF000AAF14055A5F17F6555EA0C040BD00224B7
:1050000004EAAA74434DDFF810E144EAD87452EA86
:10501000000B04D00CE0BDE8F04DFFF7B9BE002C4A
:1050200014BF012CBDE8F08D022C30D0032C32D0FF
:1050300056EA0C0B0AD0BE4220D1BA4209D126F062
:10504000804622F080423346114617E000291ADBE1
:1050500025E0DFF8C8B0FB44002C04BFDBE9000109
:10506000BDE8F08D012C02BFDBE9000181F00041B9
:10507000BDE8F08D022C0AD0032C0CD0BA4212D11C
:10508000B8F1000F0BDA23482549BDE8F08D28461A
:105090002449BDE8F08D28467146BDE8F08D1D48D5
:1050A0002149BDE8F08D921B12153C2AC4BF194856
:1050B0001D490EDCBAF1000FBEBF12F13C0F0020FB
:1050C000014606DB624600F089F921F00041FFF756
:1050D0005FFE002C08BFBDE8F08D012C04BF81F0FD
:1050E0000041BDE8F08D114A114B022C07D000F0B1
:1050F000BDFC2A46BDE8F04D0A4B00F0B7BC00F0FD
:10510000B5FC2A46BDE8F04D064B00F0BDBB0000E3
:105110000000F07F182D4454FB2109C0AE1400009C
:10512000FB21F9BFFB210940FB21F93F075C143348
:1051300026A6A13C2DE9F04704464FF07C512046BD
:1051400000F076FF814625462E460C48A0EB660609
:1051500035462946484600F06BFF8246294600F056
:1051600067FF80464FF07F5101F05FF80746294600
:1051700000F05EFF05462846BDE8F087DF59375F3F
:10518000FBF766FA1AE00E480078012804DB0020DD
:105190000B490870FFF708F90A480078022804DB79
:1051A000002008490870FFF763F9074800780428D1
:1051B00004DB002004490870FFF742F9E3E7000030
:1051C0000000002001000020020000202DE9F04135
:1051D00006460F4600F064FB04000D4618BF012090
:1051E000284320F00040C0F17F6000F1E040C00F94
:1051F0000ED0301C18BF0120384320F00040C0F111
:105200007F6000F1E040C00F04BF0120FAF7E4FF27
:1052100020462946BDE8F08121F00042A2F160520B
:10522000B2F5801F01F0004328BFD2F17F6C0BD98B
:105230005FEA001C43EAC20242EB507018BF70479D
:1052400028BF20F001007047B2F5801FBCBF184690
:1052500070474FEA410C1CF5001F02D2084600F0CF
:10526000AEBF70B500F0BCFA00000089FFF7F6BFD2
:105270004FF00040A0F580007047000010B591EAA3
:10528000030F48BF83F0004300F1F883841A71EBE9
:10529000030C05D2121943EB0C03001B61EB0C014C
:1052A000DFF824E14FEA1154A4EB135C1EEA430F2C
:1052B00018BF9EEA445F73D023EA0E03DCF1200E90
:1052C00021EA045143F4801332D322FA0CFE10EB8E
:1052D0000E0023FA0CFE41EB0E01CCF1200E03FA76
:1052E0000EFE10EB0E0051F10001B1F5801FCCF164
:1052F000200E32D201EB045112FA0EF2BDE810403A
:1053000058BF7047401C38BF5FEA420218BF704761
:10531000002814BF20F0010041F100014FEA4103D1
:1053200013F5001F38BF7047A1F1C04100F0A6BAC5
:10533000012A43EB0302ACF1200CDCF11F0E32BF5B
:105340004FF0000E23FA0CF310EB030041EB045175
:10535000B4EB115FD0D0A1EB045101F580114908E5
:105360005FEA300001EB04510ED350F1000038BF6A
:1053700012FA0EFE08D1BDE81040C9E7401C38BF44
:105380005FEA4202CAD1C3E7BDE810404FEA4103D9
:1053900013F5001F38BF7047A1F1C04100F06EBA8D
:1053A0009EEA445F08D011EA5E0FBDE8104004BFDA
:1053B00001F0004100207047BDE8104070B500F0DA
:1053C0000FFA00BF64FBBE3E0000E0FF02494FF051
:1053D000000000F0AABF00BF0000F87F2DE9C04127
:1053E00030B4DFF8A0C23CEA111418BF3CEA131431
:1053F00000F0EC8081EA03051CEA111444EAD5743C
:1054000018BF1CEA131500F0C780A4EB05044FF089
:10541000004545EAC12145EAC32341EA505143EA28
:10542000525304F17F74994204F500344FEAC020CE
:105430004FEAC22208BF904200F09C804FEA1365F9
:105440000FF24016765D4FEA134506FB05F7C7F1EC
:10545000807706FB07F74FEAD737A7FB036876424A
:10546000C8F58038A7FB06CE38BFA8F1010807FBB6
:1054700008E64FF0000EA6FB028CE6FB03CEDCF143
:10548000000CCEF1004E38BFAEF1010EA6FB0C5859
:105490004FF000074FF00005E6FB0E87A1FB08C6A2
:1054A000A0FB07CE16EB0E0645F10005E1FB0765F4
:1054B00015F1E04E7EBFA4F580345FEA46066D41EB
:1054C00016F1800745F100054FEA17274FEA0666F7
:1054D00047EA0567A6F1DE46B6F1805F4FEA15257B
:1054E0001FD9384624F0010C05EBC471BCF1FE6FE6
:1054F00001EB0C1102D8F0BCBDE8008124425CBF76
:1055000001F5801E9EEAC47F02D4F0BCBDE8008194
:10551000244238D4F0BCA1F1C041BDE8004100F004
:10552000ADB94FEAD22242EA43524FEAD323A7FB56
:1055300002864FEAD02040EA415007FB03661EEA8C
:105540000E0F4FEAD12105FB026658BFA6EB0056AD
:10555000B6EB00564FEA520E4EEAC37E18EB0E0E23
:1055600056EB530EBDD518EB02085E417F1C55F17A
:105570000005B6E74FF480154FF000074FF0000626
:105580004FF00008ADE7F0BC4FF0000001F1C04162
:1055900001F00041BDE8008111EA0C1F0CEA13156F
:1055A00000D00CE013EA0C1F00F025804FF0000043
:1055B000F0BC81EA030101F00041BDE80081F0BCCC
:1055C000BDE8004181EA030100F058B9F0BCBDE834
:1055D000004170B500F004F9097EFC3E00F007B808
:1055E00081EA03014FF0000001F00041704781EAB9
:1055F000030100F043B9F0BCBDE800414FF00000EA
:1056000021497047FFFDFBF9F7F5F4F2F0EEEDEB01
:10561000E9E8E6E4E3E1E0DEDDDBDAD8D7D5D4D3B0
:10562000D1D0CFCDCCCBCAC8C7C6C5C4C2C1C0BFFC
:10563000BEBDBCBBBAB9B8B7B6B5B4B3B2B1B0AF02
:10564000AEADACABAAA9A8A8A7A6A5A4A3A3A2A1E6
:10565000A09F9F9E9D9C9C9B9A99999897979695A1
:1056600095949393929191908F8F8E8E8D8C8C8B3D
:105670008B8A8989888887878685858484838382C5
:10568000828181800000FF070000F87FDFF848C1B9
:1056900070B51CEA111E1EBF1CEA13159EEA0C0F02
:1056A00095EA0C0F00F06F8081EA030423EA4C13A3
:1056B0004EEAD47E21EA4C1141F4801143F4801368
:1056C000AE44A1FB024CA0FB0365AEF17F7E361910
:1056D00055EB0C05A1FB034C4CF10003A0FB021C95
:1056E00016EB0C06654153F10003094218BF46F062
:1056F000010613F4007F0BD14FEA03314FEA053066
:10570000340341EA155140EA16506FF003020AE0F3
:105710004FEAC3214FEAC520F40241EA555140EA5D
:1057200056506FF0020202EB2E4201EB025585EA61
:10573000CE710AD05FEA440C18BF24F0004450F147
:10574000000041F1000120EAD47040F2FE7C624585
:1057500000D270BDA84214BF4FF080444FF04044C7
:10576000002E08BF0024BEF1806FA8BFA1F1C04188
:10577000BDE8704080F282804FF0000001F1C0412E
:1057800001F0004170479EEA0C0F0CEA131518BF98
:1057900095EA0C0F06D04FF0000081EA030E0EF0E0
:1057A000004170BD00F01CF88900013E00F007B810
:1057B00000F009B84FEA430C5FEA5C5C08D081EA6C
:1057C000030100F05BB84FEA410C5FEA5C5CF6D184
:1057D0004FF00000014970470000FF070000F87F0C
:1057E0000EF1020E2EF0030E5EF8046B364205D465
:1057F000012A43EB030515F5001F12D8012841EBE0
:10580000010C1CF5001F0CD80ED14FEAD17C15F508
:10581000001F0CEB4C0C0CF1020C08BF4CEBD37CC2
:1058200004E04FF0080C01E04FEAD37C0CEB4C0590
:1058300026FA05F606F00706B6F1040C06D20EEBC2
:10584000860CBDE870404CF0010C6047DFE80CF0BE
:10585000090B02024FF000414FF00000A1F50021BA
:1058600070BD19461046012851EB010418BFD4F54C
:10587000001484BF002001F0004170BD0808A0F5AD
:1058800000114FEA3101704791EA030F10B581F022
:1058900000413FF5FBAC83F0004300F0EFB800009F
:1058A0002DE9F04101F5801CBCF5001FC0F2C3805A
:1058B0004FEA115C21EA0C510CF1FD0C41F480110E
:1058C0005FEA5C0C0CF5C07C01D3400049413DA46B
:1058D000890241EA905187028E0E0A0CA45D04FBF6
:1058E00004F602FB06F6C6F14046A4FB0662F60D7E
:1058F00046EA422606FB06F4A4FB01235242C3F10A
:10590000404338BF5B1EA6FB02420024E6FB032493
:10591000D20B42EA4446A6FB0623A1FB02E2A3FB0C
:1059200007E4A4184FF0000252F10002E3FB014229
:105930006442C2F1404E38BFAEF1010EA6FB042313
:105940004FF00002E6FB0E32A2FB03464FF00004CC
:10595000B61954F10004E2FB0264A1FB06E6A4FBC5
:1059600007E816EB08064FF0000858F10008E4FBC2
:1059700001687642C8F1405838BFA8F10108A2FB7F
:1059800006E4A3FB08E52D194FF0000454F10004D0
:10599000E2FB0854A1FB05E6A7FB04E818EB0608A8
:1059A0004FF0000656F10006E1FB048618F12005D1
:1059B00056F10006A809A8F11B08B10908F03F0834
:1059C000B8F10A0F40EA86601CD901EB0C51BDE822
:1059D000F08100BFFCF5EEE8E2DDD8D3CFCBC7C342
:1059E000C0BDB9B6B4B1AEACA9A7A5A3A19F9D9BFC
:1059F0009A9896959392908F8D8C8B8988878685BF
:105A000084838281A0FB006800FB01F208EB42085E
:105A1000B8EB872807D5341858EB0104D5D5401CBE
:105A200051F10001D1E7341A78EB0104CDD4401EC6
:105A300071F10001C9E75FEA4C0C5FEA9C5C0DD193
:105A400005D34FF0000001F00041BDE8F081BDE852
:105A5000F04170B5FFF7C4FE6DDBFFBEBDE8F0415D
:105A60004FF00000004970470000F87F10B591EA40
:105A7000030F48BF83F000433FF508AC841A71EB75
:105A8000030C07D212198CF0004C43EB0C03001BE3
:105A900061EB0C01DFF8A4E14FEA1154A4EB135CB5
:105AA0001EEA430F18BF9EEA445F00F0B08023EA6D
:105AB0006E03524221EA0451C3EB6E0338BF5B1EF2
:105AC000DCF1200E25D322FA0CFE10EB0E0043FA77
:105AD0000CFE41EB0E01CCF1200E03FA0EFE10EB92
