:020000040800F2
:100000001809002089010008F50E0008B90C000845
:10001000F10E000845060008DB2A00080000000079
:10002000000000000000000000000000692000083F
:10003000E9070008000000008914000851210008A9
:10004000A3010008A3010008A3010008A301000800
:10005000A3010008A3010008A3010008ED0900089E
:10006000A3010008A3010008A3010008A3010008E0
:10007000A3010008A3010008A3010008A3010008D0
:10008000A3010008A3010008A3010008A3010008C0
:10009000A3010008A3010008A3010008350A000815
:1000A000A3010008A3010008A3010008A3010008A0
:1000B000A3010008B5210008A3010008A30100085E
:1000C000A3010008A3010008A3010008A301000880
:1000D000A3010008C1250008A3010008A30100082E
:1000E000D1090008A3010008A301000800F002F8EC
:1000F00000F03AF80AA090E8000C82448344AAF188
:100100000107DA4501D100F02FF8AFF2090EBAE885
:100110000F0013F0010F18BFFB1A43F0010318473B
:10012000A82D0000C82D0000103A24BF78C878C15F
:10013000FAD8520724BF30C830C144BF04680C60ED
:10014000704700000023002400250026103A28BF35
:1001500078C1FBD8520728BF30C148BF0B60704739
:100160001FB51FBD10B510BD00F031F81146FFF7E7
:10017000F7FF02F0B5FC00F04FF803B4FFF7F2FF11
:1001800003BC00F053F800000948804709480047C5
:10019000FEE7FEE7FEE7FEE7FEE7FEE7FEE7FEE737
:1001A000FEE7FEE704480549054A064B7047000094
:1001B00055210008ED000008180300201809002050
:1001C00018050020180500207047704770477546D5
:1001D00000F028F8AE4605006946534620F00700B7
:1001E000854618B020B5FFF7DDFFBDE820404FF091
:1001F00000064FF000074FF000084FF0000B21F011
:100200000701AC46ACE8C009ACE8C009ACE8C009DD
:10021000ACE8C0098D4670470446AFF30080204625
:10022000FFF7ABFF00487047B802002001491820D3
:10023000ABBEFEE7260002007047000008B50121B2
:10024000084601F0D7FB012140F2052001F002FC35
:100250004FF4004001F0C2FBFF20ADF80000012088
:100260008DF8020000208DF803006946014800F077
:100270008BFC08BD0008014010B5FFF7DFFF00F060
:1002800001F810BD00B591B0504800F0E9F95048B0
:1002900006905048079000200890092009900020FF
:1002A0000A9080200B9040000C9080000D90202040
:1002B0000E9000020F900020109006A9434800F015
:1002C00075FA0121414800F0BFF941484C3800F06F
:1002D00099F8012000F072F90020019001208DF8BA
:1002E00008008DF809004FF460200390002004906E
:1002F00009208DF8140001A935484C3800F0C4F8E5
:1003000006230122002132484C3800F0E5F806238C
:10031000022201212E484C3800F0DEF80623032289
:1003200002212B484C3800F0D7F807230422032180
:1003300027484C3800F0D0F8062305220421244831
:100340004C3800F0C9F806231A46052120484C38DD
:1003500000F0C2F80623072219461D484C3800F069
:10036000BBF806230822072119484C3800F0B4F8DE
:1003700007230922112116484C3800F0ADF801215D
:1003800013484C3800F033F8012111484C3800F084
:1003900023F80F484C3800F0FBF800BF0C484C38ED
:1003A00000F068F80028F9D109484C3800F000F94D
:1003B00000BF07484C3800F053F80028F9D101215C
:1003C00003484C3800F0E9F811B000BD08000240C5
:1003D0004C2401406402002021B1826842F00102F5
:1003E000826003E0826822F001028260704721B1DE
:1003F000826842F48072826003E0826822F4807234
:100400008260704710B504461248844208D1012129
:10041000401501F02FFB0021601501F02BFB17E0C8
:100420000D48844208D10121001501F023FB002171
:10043000201501F01FFB0BE00848844208D1012180
:10044000C80301F017FB00214FF4004001F012FB3C
:1004500010BD00000024014000280140003C014084
:10046000014600208A6812F0040F01D0012000E04C
:1004700000207047014600208A6812F0080F01D062
:10048000012000E00020704730B502460020002324
:1004900050680F4C20400D790C6844EA0524204335
:1004A000506090680B4C2040D1E902542C434D79A8
:1004B00044EA450420439060D06A20F470000C7C2C
:1004C000641EE4B2234340EA0350D06230BD000012
:1004D000FFFEF0FFFDF7F1FFF0B504460D460020EA
:1004E0000021092D11DDE068A5F10A0606EB46079B
:1004F000072606FA07F18843A5F10A0606EB460629
:1005000003FA06F10843E0600CE0206905EB4507BB
:10051000072606FA07F1884305EB450603FA06F1BC
:1005200008432061072A0FDA606B561E06EB860728
:100530001F2606FA07F18843561E06EB860605FAC3
:1005400006F10843606322E00D2A0FDA206BD61F04
:1005500006EB86071F2606FA07F18843D61F06EB2F
:10056000860605FA06F10843206310E0E06AA2F16E
:100570000D0606EB86071F2606FA07F18843A2F14F
:100580000D0606EB860605FA06F10843E062F0BDAB
:10059000816841F008018160704721B1826842F4AE
:1005A000A002826003E0826822F4A00282607047A9
:1005B000816841F0040181607047000030B1074953
:1005C000096841F40001054A116005E00349096822
:1005D00021F40001014A1160704700000824014025
:1005E00010B500F0EBFB00F01BFC00F067FB4FF4D4
:1005F000E13002F05FF94FF4FA7001F0AFFF00F064
:10060000F3FE08A000F060FFFFF736FE01F044FCA7
:100610000121282000F08CFD00F016FD0120084982
:10062000087010BD0D0A20526167696E67466972D5
:10063000655F52432056322E322E32200D0A0000C2
:100640005E00002000BFFEE721B1026842F0010217
:10065000026004E002684FF6FE731A4002607047C1
:1006600001684FF6FE721140016000210160416097
:100670008160C1604B49884208D14A4908394968BC
:1006800041F00F01474A083A51608AE04549143168
:10069000884208D143490839496841F0F001414A8C
:1006A000083A51607DE03F492831884208D13D49F0
:1006B0000839496841F470613A4A083A516070E07B
:1006C00038493C31884208D136490839496841F4F3
:1006D0007041344A083A516063E0324950318842EF
:1006E00008D130490839496841F470212D4A083A47
:1006F000516056E02B496431884208D129490839B4
:10070000496841F47001274A083A516049E0254997
:100710007831884208D123490839496841F070612D
:10072000204A083A51603CE01F49884206D1011F27
:10073000096841F00F01021F116032E01A491431BB
:10074000884208D11849091F096841F0F001164A8A
:10075000121F116025E014492831884208D112493E
:10076000091F096841F470610F4A121F116018E0F7
:100770000D493C31884208D10B49091F096841F4F1
:100780007041094A121F11600BE00749503188423D
:1007900007D10549091F096841F47021024A121F57
:1007A00011607047080002400804024010B50022A2
:1007B000026847F6F0739A430C6A8B6823430C690E
:1007C00023434C6923438C692343CC6923434C6AFC
:1007D00023438C6A23431A430260CB6843600B684F
:1007E00083604B68C36010BD7047002109E00022A0
:1007F00001E0531C9AB242F2B8239A42F9DB4B1C37
:1008000099B28142F3DB70475F48007800287CD0C2
:100810005E48007800BB00205D4908805D49088083
:100820005D4908805D4908805D4908805D49088010
:100830005D4908805D4908605D4908605D49086060
:100840005D4908605D4908605D4908605D49086070
:1008500001204E49087070474C480078401C4B49B5
:100860000870594800885149096808444F49086090
:10087000554840884E49096808444D490860524827
:1008800080884C49096808444A4908604E48C08835
:10089000494909680844484908604B480089474964
:1008A000096808444549086047484089444909683F
:1008B000084443490860444880894249096808441B
:1008C000404908603148007833285BD12F480078D0
:1008D000401E2E49087035480068097890FBF1F0F9
:1008E000A0F2DC5000B22A4908803148006827494C
:1008F000097890FBF1F0A0F2DC5000B225490880A5
:100900002C4800682149097800E03BE090FBF1F0B9
:10091000A0F2DC5000B220490880274800681B493B
:10092000097890FBF1F0A0F2DC5000B21B4908807E
:10093000224800681549097890FBF1F0A0F2DC50DC
:1009400000B2174908801E4800681049097890FBDA
:10095000F1F0A0F2DC5000B212490880194800689A
:100960000A49097890FBF1F0A0F2DC5000B20E4980
:100970000880002005490870034908704FF4806022
:100980001249086000BF66E70C0000200F0000203D
:100990002C0000202E00002030000020320000201B
:1009A0003400002036000020380000201000002015
:1009B00014000020180000201C000020200000204F
:1009C000240000202800002044020020100C0140D8
:1009D00010B54FF4004000F059F828B14FF4004032
:1009E00000F04EF800F072FB10BD000010B50220C0
:1009F00000F04CF8B8B1022000F042F80A48006854
:100A000064380A49096888420DD9074800680749CF
:100A100008600748007818B100200549087002E016
:100A200001200349087010BD58000020000000207C
:100A30000D00002010B54FF4007000F027F8C0B191
:100A40004FF4007000F01CF80A48006864380A4946
:100A5000096888420DD907480068074908600748B7
:100A6000007818B100200549087002E00120034910
:100A7000087010BD58000020040000200E00002067
:100A8000014908607047000014040140014600203D
:100A90000022074B1B6803EA0102054B14331B6855
:100AA0000B4202D00AB1012000E000207047000094
:100AB00000040140002123498279002A3AD00A46E5
:100AC000126803689A430B461A600A1D126803688D
:100AD0009A430B1D1A60027911440A6803681A438D
:100AE0000A60184A0832126803689A43154B0833A3
:100AF0001A601A1D126803689A43124B0C331A606D
:100B00004279102A0ED11A1F126803681A430D4B3E
:100B100008331A601A1D126803681A43094B0C3314
:100B20001A600DE00749427911440A6803681A43C4
:100B30000A6005E0027911440A6803689A430A6072
:100B4000704700000004014030B500228B071C0FE5
:100B50000F2303FA04F20B4B8C1053F82430934309
:100B6000084C8D1044F8253023468C1053F824305F
:100B70008C07240F00FA04F42343024C8D1044F830
:100B8000253030BD080001402DE9F0410246002526
:100B90000026002000230024002791F803C00CF059
:100BA0000F0591F803C01CF0100F03D091F802C09C
:100BB0004CEA050591F800C0BCF1000F31D0146873
:100BC00000202BE04FF0010C0CFA00F3B1F800C04C
:100BD0000CEA03069E4220D183004FF00F0C0CFA62
:100BE00003F7BC4305FA03FC4CEA040491F803C084
:100BF000BCF1280F06D14FF0010C0CFA00FCC2F832
:100C000014C00AE091F803C0BCF1480F05D14FF0C1
:100C1000010C0CFA00FCC2F810C0401C0828D1D30B
:100C20001460B1F800C0BCF1FF0F34DD546800203F
:100C30002EE000F1080C4FF0010808FA0CF3B1F8AF
:100C400000C00CEA03069E4221D183004FF00F0C36
:100C50000CFA03F7BC4305FA03FC4CEA040491F8D0
:100C600003C0BCF1280F05D100F1080C08FA0CF8FC
:100C7000C2F8148091F803C0BCF1480F07D100F10D
:100C8000080C4FF0010808FA0CF8C2F81080401C5C
:100C90000828CED35460BDE8F08110B5014600208D
:100CA000CB78002204E0D41C0C5D6040541CE2B2FE
:100CB0009C1CA242F7DB10BD00BFFEE70EB5012170
:100CC000092000F0C7FE0220ADF8080048208DF88A
:100CD0000B0002A91248FFF757FF4FF40070ADF860
:100CE000080048208DF80B0002A90D48FFF74CFFC3
:100CF00001210846FFF728FF09210120FFF724FF03
:100D000040F20220009000208DF804000C208DF8A5
:100D1000050001208DF806006846FFF7CBFE0EBDEA
:100D2000000C014001461F4A12681F4B1A601F4AFF
:100D30001278D2B11E4B1B8893FBF1F202EBD273F7
:100D4000C3F34F00184A12681A4B1B68D21A82422A
:100D500026D34FF48052184B1A600022134B1A709E
:100D6000104A1268134B1A601AE0114B1B8893FB50
:100D7000F1F202EBD273C3F34F000B4A12680D4B32
:100D80001B68D21A82420BD34FF480520A4B1B1DB0
:100D90001A600122054B1A70024A1268054B1A604C
:100DA00070470000580000204C0000204400002044
:100DB0005C00002048000020100C014008B5012113
:100DC000082000F047FE4FF48060ADF800000320DB
:100DD0008DF8020010208DF8030069460F48FFF7D8
:100DE000D3FE4FF48050ADF8000003208DF80200D0
:100DF00010208DF8030069460848FFF7C5FE4FF440
:100E00000060ADF8000003208DF8020010208DF87E
:100E1000030069460148FFF7B7FE08BD000C01401A
:100E200010B500241AE04FF48050144908604010B7
:100E3000091F0860401008606420FFF7D6FC4FF4DB
:100E400000600E4908604000091F08608010091DFD
:100E500008606420FFF7C9FC601CC4B2032CE2DB0D
:100E60004FF48060054908608000091F0860401049
:100E700008606420FFF7B9FC10BD0000140C0140AD
:100E800000B517480088C82804DD15480088B0F56B
:100E9000A57F08DB13480088C8280CDD11480088AE
:100EA000B0F5B47F07DA4FF480600F4908600A207C
:100EB000FFF738FF13E00D48007840B14FF4806031
:100EC0000949091D08600420FFF72CFF07E04FF4D3
:100ED00080600549091D08600120FFF723FF00BD60
:100EE0007600002078000020100C01400D0000204A
:100EF00000BFFEE77047000070B500264A48C07882
:100F0000401DC5B2032404E04748005D4640601C14
:100F1000C4B2AC42F8DB4448405DB04200D070BD82
:100F200041480078242800D0F9E73F4840784D2810
:100F300000D0F4E73C4880783E2800D0EFE74FF43B
:100F400000603A490860384800790B285CD136487F
:100F500040793549897940EA01203549088032488D
:100F6000C0793149097A40EA0120324908802E4887
:100F7000407A2D49897A40EA01202F4908802A4881
:100F8000C07A2949097B40EA01202C49088026487B
:100F9000407B2549897B40EA012029490880224875
:100FA000C07B284908702048007C48701E48407C5F
:100FB00088701D48807CC8701B48C17C2148017125
:100FC0001948017D1F4841711748407D1D498871AE
:100FD0001548817D1B48C1711348C17D19480172B4
:100FE00003240EE0002004EB4401164A505404EBA5
:100FF00044011144487004EB440111448870601CA2
:10100000C4B20A2CEEDB0CE007480079662803D056
:10101000054800796C2804D1681CC1B2024801F06F
:101020004FFD00BF7BE7000076020020140C01405A
:10103000760000203C0000203E0000204000002000
:1010400042000020280200201CB505221049302053
:1010500000F024F905226946102000F0D3F800249E
:1010600008E01DF804000A49095D884200D003E049
:10107000601CC4B2052CF4DB00BF052C03D105A015
:1010800000F022FA02E00AA000F01EFA1CBD0000E7
:101090007A0000200D0A204E524632344C30312066
:1010A000B3F5CABCBBAFB3C9B9A6A3A10000000089
:1010B0000D0A204E524632344C303120B3F5CABCB2
:1010C000BBAFCAA7B0DCA3A10000000070B5072029
:1010D00000F0B8F8044614F0400F13D0602000F080
:1010E000B1F80546202D08D12A460F49612000F0AD
:1010F00089F800200D49088003E0FF21E22000F07C
:10110000EDF800BF14F0100F06D014F0010F03D05B
:10111000FF21E12000F0E2F800F054F821462720FA
:1011200000F0DCF870BD0000760200208400002092
:1011300070B505460C464FF480401F494861FF21B9
:10114000E12000F0CBF8FF21E22000F0C7F80522F3
:101150001A49302000F0A2F8052219492A2000F08F
:101160009DF80121212000F0B9F80121222000F092
:10117000B5F81A21242000F0B1F82946252000F006
:10118000ADF82021312000F0A9F80F21262000F031
:10119000A5F8012C04D10E21202000F09FF805E0D5
:1011A000022C03D10F21202000F098F84FF480404A
:1011B0000149086170BD0000001001407A00002064
:1011C0007F00002010B54FF48040054948610F2191
:1011D000202000F083F84FF480400149086110BDE1
:1011E0000010014010B54FF48040054948610E21C0
:1011F000202000F073F84FF480400149086110BDD1
:10120000001001402DE9F04107460D4616464FF407
:1012100000500B494861384600F00AFF8046002420
:1012200005E0002000F004FF2855601CC4B2B44261
:10123000F7DB4FF40050024908614046BDE8F081F9
:101240000010014070B504464FF400500749486152
:10125000204600F0EDFE002000F0EAFE05464FF4C7
:10126000005002490861284670BD0000001001408E
:1012700070B504460D46FFF7B5FF4FF480400649B0
:1012800048612A462146A02000F008F84FF480402B
:101290000149086170BD0000001001402DE9F041D6
:1012A00007460D4616464FF400500B494861384634
:1012B00000F0BEFE8046002404E0285D00F0B8FE89
:1012C000601CC4B2B442F8DB4FF40050024908611C
:1012D0004046BDE8F08100000010014070B50546B1
:1012E0000C464FF4005007494861284600F0A0FE24
:1012F0000646204600F09CFE4FF40050014908616C
:10130000304670BD0010014070B5002100230F224F
:10131000C4780CB3164C246804F4E064C4F5E064AB
:10132000210AC1F10403CA40447804FA03F1847825
:101330001440214309010F4C0678A155047804F0AC
:101340001F050124AC4005786D114FF0E02606EB37
:101350008505C5F8004109E0047804F01F05012463
:10136000AC40054D0678761145F8264070BD00006A
:101370000CED00E000E400E080E100E00249014300
:10138000024A1160704700000000FA050CED00E011
:1013900010B512480088401C104908800846008893
:1013A000012801D1FFF7A8FD0C480088322190FBED
:1013B000F1F201FB120008B9FFF788FE0748008828
:1013C000B0F5FA7F09DB4FF40060054908600120A1
:1013D0000249088000200349088010BD84000020D5
:1013E000100C01407600002008B54FF4A060FFF714
:1013F000C5FF1D208DF8000000208DF801000120A0
:101400008DF802008DF803006846FFF77DFF282065
:101410008DF8000001208DF8010000208DF80200F9
:1014200001208DF803006846FFF76EFF25208DF838
:10143000000002208DF8010000208DF8020001203C
:101440008DF803006846FFF75FFF07208DF8000066
:1014500003208DF8010000208DF8020001208DF896
:1014600003006846FFF750FF17208DF800000320A7
:101470008DF8010000208DF8020001208DF8030096
:101480006846FFF741FF08BD7047000010B50446ED
:101490000A4801780078401C084A107008484454F3
:1014A0000848008810F0800F06D1012240F2277111
:1014B00004480C3801F066F910BD0000510000200E
:1014C000C40000200C38014070B505462C4603E0EE
:1014D0002078FFF7DBFF641C20780028F8D170BD6E
:1014E0007FB524208DF800004D208DF801003E20AE
:1014F0008DF8020007208DF803006E208DF804009F
:101500001548008801F000FC0646144901F01AFB5A
:10151000054601F0D9FBC0B28DF8050000208DF81A
:1015200006008DF807008DF808008DF809008DF889
:101530000A008DF80B006846FFF7AFFB8DF80C0032
:10154000002405E01DF80400FFF7A0FF601CC4B2F2
:101550000D2CF7DB7FBD000076000020000020414D
:101560001FB524208DF800004D208DF801003E208D
:101570008DF8020007208DF8030064208DF8040028
:10158000DE208DF8050003208DF8060000208DF880
:1015900007008DF808008DF809008DF80A000C206E
:1015A0008DF80B006846FFF778FB8DF80C000024DF
:1015B00005E01DF80400FFF769FF601CC4B20D2CA4
:1015C000F7DB1FBD10B588B024208DF800004D203A
:1015D0008DF801003E208DF8020010208DF80300E8
:1015E00068208DF80400234800788DF80500214814
:1015F0000088000A8DF806001F4800788DF8070063
:101600001D480088000A8DF808001C4800788DF8F5
:1016100009001A480088000A8DF80A001848007866
:101620008DF80B0016480088000A8DF80C00002089
:101630008DF80D008DF80E008DF80F008DF810005C
:101640008DF811008DF812008DF813008DF814003C
:101650006846FFF722FB8DF81500002405E01DF811
:101660000400FFF713FF601CC4B2162CF7DB08B0B0
:1016700010BD0000420000203E000020400000207D
:101680003C0000201FB524208DF800004D208DF86F
:1016900001003E208DF8020008208DF80300732021
:1016A0008DF8040003208DF8050001208DF8060058
:1016B00002208DF8070000208DF808008DF8090041
:1016C0008DF80A008DF80B008DF80C006846FFF7C6
:1016D000E4FA8DF80D00002405E01DF80400FFF782
:1016E000D5FE601CC4B20E2CF7DB1FBD10B58AB04E
:1016F00024208DF800004D208DF801003E208DF84B
:1017000002001B208DF8030070208DF804003E4875
:1017100000788DF805003C4840788DF806003A487E
:1017200080788DF807003848C0788DF80800364872
:1017300000798DF80900344840798DF80A00324864
:1017400080798DF80B003048C0798DF80C002E4858
:10175000007A8DF80D002C48407A8DF80E002A484A
:10176000807A8DF80F002848C07A8DF8100026483E
:10177000007B8DF811002448407B8DF81200224830
:10178000807B8DF813002048C07B8DF814001E4824
:10179000007C8DF815001C48407C8DF816001A4816
:1017A000807C8DF817001848C07C8DF8180016480A
:1017B000007D8DF819001448407D8DF81A001248FC
:1017C000807D8DF81B001048C07D8DF81C000E48F0
:1017D000007E8DF81D000C48407E8DF81E000A48E2
:1017E000807E8DF81F006846FFF757FA8DF82000BD
:1017F000002405E01DF80400FFF748FE601CC4B299
:10180000212CF7DB0AB010BD2802002030B589B0CA
:10181000044624208DF804004D208DF805008DF835
:10182000064010208DF8070069208DF80800454813
:1018300080798DF809004348C088000A8DF80A00B5
:10184000404800798DF80B003E488088000A8DF8EA
:101850000C003C4880788DF80D003A484088000A1A
:101860008DF80E00374800788DF80F003548008855
:10187000000A8DF810003448007A8DF811003248C3
:101880000089000A8DF812002F48807A8DF8130025
:101890002D484089000A8DF814002B48007B8DF8F4
:1018A000150029488089000A8DF816003C2C26D1A5
:1018B00000202549C8812548007820B10846C08904
:1018C00040F00100C8812248007828B11E48C08934
:1018D00040F002001C49C8811B48807B8DF817002E
:1018E0001948C089000A8DF8180001A8FFF7D5F93A
:1018F0008DF81900202101A8FFF7BAFC1FE03E2C4B
:101900001DD11448008800F57A700F49C881084637
:10191000807B8DF817000846C089000A8DF81800F2
:1019200001A8FFF7BAF98DF81900002505E001A913
:10193000485DFFF7ABFD681CC5B2162DF7DB09B09B
:1019400030BD000054020020440200200D000020A1
:101950000E0000207800002000B589B024208DF80A
:1019600004004D208DF805003C208DF8060009206C
:101970008DF80700CA208DF80800174800788DF808
:101980000900154840788DF80A00134880788DF8D2
:101990000B001148C0788DF80C000F4800798DF8C5
:1019A0000D000D4840798DF80E000B4880798DF8B8
:1019B0000F000948C0798DF810000748007A8DF8AB
:1019C000110001A8FFF769F98DF81200202101A884
:1019D000FFF74EFC09B000BD2802002001460020A0
:1019E000034A506820F440400843506070470000AC
:1019F0000010024029B1064A52690243044B5A6161
:101A000004E0034A52698243014B5A617047000067
:101A10000010024029B1064AD2690243044BDA6140
:101A200004E0034AD2698243014BDA617047000047
:101A30000010024029B1064A12690243044B1A61A0
:101A400004E0034A12698243014B1A6170470000A7
:101A50000010024029B1064A92690243044B9A6180
:101A600004E0034A92698243014B9A617047000087
:101A70000010024029B1064AD2680243044BDA60E2
:101A800004E0034AD2688243014BDA6070470000E9
:101A90000010024030B500210022002400232D4D0B
:101AA0006D6805F00C0121B1042905D0082923D166
:101AB00005E0294D056022E0274D05601FE0254D1A
:101AC0006D6805F47012234D6D6805F480340225AD
:101AD00005EB92421CB9214D554305600BE01D4DAD
:101AE0006D6815F4003F03D01C4D5543056002E0BE
:101AF000194D5543056002E0174D056000BF00BF5A
:101B0000144D6D6805F0F0010909154D6B5C056811
:101B1000DD4045600F4D6D6805F4E061090A104D28
:101B20006B5C4568DD4085600A4D6D6805F4605169
:101B3000C90A0B4D6B5C4568DD40C560054D6D689D
:101B400005F44041890B074D6B5CC568B5FBF3F5A7
:101B5000056130BD0010024000127A0000093D000E
:101B600086000020960000200188B1F57A7F02DC13
:101B70004FF47A7100E0018801800188B1F5FA6FB5
:101B800002DB4FF4FA6100E0018801808188B1F541
:101B90007A7F02DC4FF47A7100E08188818081884D
:101BA000B1F5FA6F02DB4FF4FA6100E081888180C1
:101BB000C188B1F57A7F02DC4FF47A7100E0C18808
:101BC000C180C188B1F5FA6F02DB4FF4FA6100E021
:101BD000C188C1804188B1F57A7F02DC4FF47A7107
:101BE00000E0418841804188B1F5FA6F02DB4FF493
:101BF000FA6100E0418841800189B1F57A7F02DC19
:101C00004FF47A7100E0018901810189B1F5FA6F21
:101C100002DB4FF4FA6100E0018901814189B1F5ED
:101C20007A7F02DC4FF47A7100E041894181418979
:101C3000B1F5FA6F02DB4FF4FA6100E041894181AE
:101C40008189B1F57A7F02DC4FF47A7100E08189F5
:101C500081818189B1F5FA6F02DB4FF4FA6100E00E
:101C600081898181704700002DE9F04F85B00446DD
:101C70000E460027B846B946BA4600257649088977
:101C800001F042F84FF07A51049001F051F8834688
:101C900001F01AF800F57A7070490988401A20801E
:101CA0006D49C88901F030F84FF07A51049001F085
:101CB0003FF8834601F008F8C0F5FA6068490988E2
:101CC000401AA0806449488901F01EF84FF07A510B
:101CD000049001F02DF8834600F0F6FF00F57A70CD
:101CE00060490988401A60805B49888901F00CF8D6
:101CF0004FF07A51049001F01BF8834600F0E4FFA6
:101D0000C0F5FA6058490988401AE080524988882D
:101D100000F0FAFF4FF07A51049001F009F8834681
:101D200000F0D2FF00F57A7050490988401A2081EE
:101D30004949088800F0E8FF4FF07A51049000F01C
:101D4000F7FF834600F0C0FF00F57A704849098824
:101D5000401A60814049488800F0D6FF4FF07A5120
:101D6000049000F0E5FF834600F0AEFF00F57A70C6
:101D700040490988401AA0813749088A00F0C4FF09
:101D800035490290C88800F0BFFF4FF080410090B5
:101D900000F0CEFF0190029900F0D4FE3649039086
:101DA00000F0C6FF8346354900F0C2FF049000F002
:101DB0008BFF334908802046FFF7D6FEFEF724FD4F
:101DC000A1883048304A127820F81210E0882F4954
:101DD0002D4A127821F8120021882D482A4A1278BB
:101DE00020F8121060882B49274A127821F8120037
:101DF00000BF11E0234830F815000744234830F8AD
:101E000015008044224830F815008144214830F8FC
:101E100015008244681CC5B2052DEBDB0520B7FB1D
:101E2000F0F0B0800520B8FBF0F0F0800520B9FBA1
:101E3000F0F030800520BAFBF0F070801248007896
:101E4000401C1149087008460078052801D100207F
:101E5000087005B0BDE8F08F640200202C0000205F
:101E6000300000202E00002032000020340000202E
:101E700036000020380000209A99993F0000C8429F
:101E8000780000209C0000203A000020A6000020DE
:101E9000B0000020BA00002000B589B0012119204F
:101EA000FFF7D8FD01218803FFF7B4FD4FF4604030
:101EB000ADF80C0001208DF80E0018208DF80F00F1
:101EC00003A93548FEF760FE4FF48040ADF80C00E2
:101ED00001208DF80E0010208DF80F0003A92F4867
:101EE000FEF752FE4FF40050ADF80C0001208DF8C3
:101EF0000E0010208DF80F0003A92848FEF744FEBD
:101F00004FF40040ADF80C0003208DF80E0048207F
:101F10008DF80F0003A92148FEF736FE0F2102209D
:101F2000FEF712FE4FF40040019000208DF80800EB
:101F30000C208DF8090001208DF80A0001A8FEF799
:101F4000B9FD4FF40050154908610020ADF81000AC
:101F50004FF48270ADF812000020ADF81400ADF817
:101F60001600ADF818004815ADF81A001020ADF8AD
:101F70001C000020ADF81E000720ADF8200004A9C9
:101F8000074800F037F80121054800F019F805A0CE
:101F9000FFF79AFA09B000BD000C014000100140A3
:101FA000003800400D0A20535049322020202020C4
:101FB000B3F5CABCBBAFCDEAB3C9A3A10000000012
:101FC00021B1028842F04002028004E002884FF60C
:101FD000BF731A40028070470246002013890B42EB
:101FE00001D0012000E00020704701468889704739
:101FF0008181704710B50022028802F441520B889B
:102000004C8823438C882343CC8823430C89234367
:102010004C8923438C892343CC8923431A43028070
:10202000838B4FF2FF74234083830B8A038210BD9E
:1020300010B5044600BF02210A48FFF7CDFF002873
:10204000F9D021460748FFF7D3FF00BF012105481B
:10205000FFF7C2FF0028F9D00248FFF7C6FFC0B261
:1020600010BD000000380040704710B500F002F8C5
:1020700010BD00000CB500200190009032480068AF
:1020800040F480303049086000BF2F48006800F4F9
:10209000003000900198401C0190009818B90198F8
:1020A000B0F5A06FF1D12848006810F4003F02D0CD
:1020B0000120009001E0002000900098012842D10A
:1020C0002248006840F01000204908600846006877
:1020D00020F0030008600846006840F00200086035
:1020E00019484068184948600846406848600846F2
:1020F000406840F4806048600846406820F47C10E6
:1021000048600846406840F4E810486008460068A7
:1021100040F08070086000BF0B48006810F0007F3E
:10212000FAD00948406820F0030007494860084693
:10213000406840F00200486000BF0348406800F07B
:102140000C000828F9D10CBD00100240002002400C
:102150007047000010B51348006840F001001149B5
:10216000086008464068104908400E494860084623
:1021700000680E4908400B4908600846006820F4D2
:10218000802008600846406820F4FE0048604FF454
:102190001F008860FFF769FF4FF000600449086086
:1021A00010BD0000001002400000FFF8FFFFF6FE27
:1021B00008ED00E01348008810F0010F20D04FF622
:1021C000FE70104908801048007800B970470F4829
:1021D0000068401C0D4908600D480078401C0C49FF
:1021E00008700C480078401C0A4908700A480078BA
:1021F000401C0949087009480078401C07490870CC
:1022000000BFE3E7100400405E00002058000020FB
:1022100008000020090000200A0000200B00002018
:10222000CA430282704721B1028842F00102028053
:1022300004E002884FF6FE731A40028070470000E7
:1022400010B504466848844208D10121C014FFF744
:1022500011FC0021E014FFF70DFCC4E0B4F1804F45
:1022600008D101210846FFF7E5FB00210120FFF717
:10227000E1FBB8E05D48844208D101210220FFF76C
:10228000D9FB00210220FFF7D5FBACE0584884427F
:1022900008D101210420FFF7CDFB00210420FFF726
:1022A000C9FBA0E05348844208D101210820FFF770
:1022B000C1FB00210820FFF7BDFB94E04E4884429B
:1022C00008D101211020FFF7B5FB00211020FFF7F6
:1022D000B1FB88E04948844208D101212020FFF762
:1022E000A9FB00212020FFF7A5FB7CE044488442A5
:1022F00008D101214014FFF7BDFB00216014FFF756
:10230000B9FB70E03F48844209D10121C804FFF7BE
:10231000B1FB00214FF40020FFF7ACFB63E03A482B
:10232000844209D101210805FFF7A4FB00214FF4E5
:102330008010FFF79FFB56E03448844209D1012109
:102340004805FFF797FB00214FF40010FFF792FBC1
:1023500049E02F48844208D101214020FFF76AFB61
:1023600000214020FFF766FB3DE02A48844208D167
:1023700001218020FFF75EFB00218020FFF75AFB40
:1023800031E02548844208D101218015FFF752FB36
:102390000021A015FFF74EFB25E02048844209D11B
:1023A00001210804FFF766FB00214FF48030FFF79E
:1023B00061FB18E01A48844209D101214804FFF763
:1023C00059FB00214FF40030FFF754FB0BE0154898
:1023D000844208D101218804FFF74CFB00214FF40F
:1023E0008020FFF747FB10BD002C01400004004097
:1023F00000080040000C00400010004000140040A5
:1024000000340140004C01400050014000540140A4
:1024100000180040001C0040002000400040014027
:1024200000440140004801401AB183890B43838175
:1024300002E083898B438381704700000022028879
:102440001D4B98420ED01D4B98420BD0B0F1804FDF
:1024500008D01B4B984205D01A4B984202D01A4B19
:10246000984204D14FF68F731A404B881A43174B8A
:10247000984207D0164B984204D04FF6FF431A40BB
:10248000CB881A4302808B8883850B8803850A4B8F
:1024900098420BD0094B984208D00E4B984205D079
:1024A0000D4B984202D00D4B984201D10B7A038616
:1024B0000123838270470000002C0140003401405A
:1024C0000004004000080040000C004000100040E4
:1024D0000014004000400140004401400048014019
:1024E00010B53C20FFF792F910BD10B53E20FFF764
:1024F0008DF9FEF7C5FCFFF765F810BD10B5104863
:102500000078401C0E49087008460078012806D063
:10251000022807D0032808D004280FD108E0FEF7CE
:10252000DFFF0BE0FFF71CF808E0FEF7D9FF05E03E
:10253000FFF7A8F800200249087000BF00BF10BDD7
:102540003B00002010B5FEF723FF02490248FFF7C9
:102550008BFB10BD54020020440200203EB504460F
:1025600001210220FFF756FA124804801248FFF7B3
:1025700067FE124890FBF4F080B2ADF804004720EB
:10258000ADF800000020ADF80600ADF80200694685
:102590000948FFF753FF01210748FFF741FE0122D9
:1025A00011460548FFF740FF01210348FFF73BFEB6
:1025B0003EBD00005C0000200004004040420F00CF
:1025C00010B50821554800F0D0F810B1534800F07C
:1025D0006BF95248008810F0400F1ED04F480C3065
:1025E000008810F0800F18D04D4801780078401C0A
:1025F0004B4A10704B48405C4849091D0880104602
:10260000007849490978884207D144480C3000884D
:1026100020F0800041490C3108804048008810F0CB
:10262000200F79D03D49091D0988C8B23F49097872
:1026300071B924284DD13E49097801EBC10202EB62
:1026400001113C4A02F811000121384A117040E0A2
:1026500036490978012913D14D280DD1344909781B
:1026600001EBC10202EB0111324A02EB4101487059
:1026700002212E4A11702CE000212C4A117028E012
:102680002A490978022913D13C280DD12849097813
:1026900001EBC10202EB0111264A02EB41018870F5
:1026A0000321224A117014E00021204A117010E029
:1026B0001F49097801EBC10202EB01111D4A02EB2F
:1026C00041011A4A1278885418490978491C174A56
:1026D00011701749097801EBC10202EB0111154A8B
:1026E00002EB4101C978891D104A1278914212D13A
:1026F00000210E4A11700E49097839B100210C4AA7
:10270000117001210C4A117005E005E00121084A11
:1027100011700A4A117000BF10BD0000003801405E
:1027200050000020C4000020510000205200002072
:1027300053000020C4010020550000205400002058
:1027400001F40072B2F5007F00D100BFCA430280DD
:10275000704721B1828942F40052828104E082896B
:102760004DF6FF731A408281704702460020B1F592
:10277000007F00D100BF13880B4201D0012000E090
:1027800000207047F0B503460024002600250020F5
:10279000A1F510676A3F00D100BF1846C1F342148B
:1027A00001F01F06012707FA06F5012C01D10C30B4
:1027B00004E0022C01D1103000E014301AB1076897
:1027C0002F43076002E00768AF430760F0BD0000D9
:1027D0002DE9F04786B005460E460024A24600BF0C
:1027E000A1460027B08900B100BF2F462C8A4CF6C5
:1027F000FF700440F08804432C82AC894EF6F3103D
:102800000440B08831890843718908430443AC818E
:10281000AC8A4FF6FF400440B0890443AC8201A863
:10282000FFF738F91F48874202D1DDF810A001E018
:10283000DDF80CA0A88910F4004F08D00AEBCA00FC
:1028400000EB0A1031684900B0FBF1F807E00AEB31
:10285000CA0000EB0A1031688900B0FBF1F864206F
:10286000B8FBF0F004012009642101FB1089A8895C
:1028700010F4004F08D0322000EBC900B0FBF1F09B
:1028800000F00700044308E0322000EB0910642147
:10289000B0FBF1F000F00F0004432C8106B0BDE85E
:1028A000F08700000038014001468888C0F3080026
:1028B0007047000010B586B0044601210520FFF7DF
:1028C000C9F801218803FFF7C5F84FF40070ADF88F
:1028D000140018208DF8170003208DF8160005A9A4
:1028E0001848FEF751F94FF48060ADF81400042049
:1028F0008DF8170003208DF8160005A91148FEF782
:1029000043F901940020ADF80800ADF80A00ADF8D5
:102910000C00ADF810000C20ADF80E0001A90A481B
:10292000FFF756FF012240F225510748FFF72AFF23
:1029300001210548FFF70DFF40210348FFF700FF85
:1029400006B010BD000801400038014010B55848DD
:102950000078012803D05748007801287ED15448D8
:102960000078012804D1002051490870002403E0B8
:10297000002050490870012404EBC40000EB04104F
:102980004D4901EB40000079CD286CD004DC702863
:1029900066D0CA2861D104E0CE2870D0D0285CD19E
:1029A00078E004EBC40000EB0410434901EB400065
:1029B00040794249087004EBC40000EB04103E4922
:1029C00001EB400080793D49487004EBC40000EB06
:1029D0000410394901EB4000C0793849887004EB94
:1029E000C40000EB0410344901EB4000007A334985
:1029F000C87004EBC40000EB04102F4901EB400049
:102A0000417A2E48017104EBC40000EB04102A49FE
:102A100001EB4000817A2948417104EBC40000EBCE
:102A20000410254901EB4000C07A2449887104EB69
:102A3000C40000EB0410204901EB4000017B1F485B
:102A4000C17104EBC40000EB04101B4901EB400012
:102A5000417B1A480172FEF77FFF26E026E002E084
:102A6000FEF744FE21E004EBC40101EB0411124A1D
:102A700002EB41002021FEF7FBFB16E0FFE704EB31
:102A8000C40101EB04110C4A02EB41002021FEF7C6
:102A9000EFFB0AE004EBC40101EB0411064A02EB70
:102AA00041002021FEF7E4FB00BF00BF10BD000085
:102AB0005400002055000020C401002028020020FE
:102AC00070B504460D4605E02078FEF7DFFC641C77
:102AD000681EC5B2002DF7D170BD00BFFEE7000033
:102AE000FDF77EFD25E0FFF731FF12480078012851
:102AF00004DB00200F490870FFF724FD0E48007822
:102B0000052804DB00200C490870FFF7E9FC0B489E
:102B10000078142804DB002008490870FFF7E5FC62
:102B2000074800787D2804DB002005490870FFF77E
:102B3000E5FCD8E708000020090000200A0000207A
:102B40000B0000204FF47F0C1CEAD0121EBF1CEAC1
:102B5000D11392EA0C0F93EA0C0F00F0858090EAF3
:102B6000010F48BF42F4807240F4000C41F40000B1
:102B70002CF07F4120F07F4000B58142A2EB0302A0
:102B80000FF2081CACEB504EC0F100009EF800E0C4
:102B90004FEA4E0E00FB0EFC38BF49004FEA2C1CDA
:102BA00002F5FA020CFB0EF34FEACE1E4FEA112C8F
:102BB0004FEAC1210EEB635E42EB22420EFB0CFC9E
:102BC0004FEA1C5300FB03114FEA112C4FEA01316D
:102BD0000EFB0CFC4FEADC4C00FB0C11C14228BF81
:102BE00009184CEB03335DF804EB10EB410143EBA8
:102BF000C250B2F57C0F38BF704729D512F0F00FE4
:102C00001CBF00F1C04000F000407047008182838B
:102C10008485868788898B8C8D8E8F9192939596EB
:102C200097999A9C9D9FA0A2A3A5A7A8AAACAEB075
:102C3000B2B3B5B7B9BCBEC0C2C5C7C9CCCED1D47A
:102C4000D7D9DCDFE2E6E9ECF0F3F7FAFE000000AA
:102C50004FEA400C0CF1807CBCF17E4F28BF7047DE
:102C6000B0F1C04000F02BB990EA010F0CEAD1138B
:102C700048BF42F48072624538BF634507D213F4FF
:102C80007F0F16D080EA010000F00040704710B5B9
:102C900000F0CFF8097EFC3E00F005B880EA0100A4
:102CA00000F00040704780EA010000F0004000F0B2
:102CB00006B912F47F0F04BF0248704780EA010092
:102CC00000F0FDB80000C07FC10DD1F19E0206DB0F
:102CD0004FEA002343F0004323FA02F0704700421A
:102CE00007D54FEA4001B1F1FE4F02D24FF000008C
:102CF000704710B500F09DF849922480002070477D
:102D00006FEA200070470000B0FA80F310FA03F277
:102D1000C3F19D030AD0D90501EB1220530638BF39
:102D2000704700F1010008BF20F00100704700006B
:102D30004FF47F0C1CEAD0121EBF1CEAD11392EA9A
:102D40000C0F93EA0C0F00F0478090EA010F48BF88
:102D500042F480724FF0004C4CEA00204CEA012112
:102D600002EB0302A0FB0113A2F50002002918BF29
:102D700043F001035B0028BF4FEA330342EB2242DA
:102D80005FEA132C4CEBC2502EBFBCEB436FB2F585
:102D90007C0F70474FEA036CBCF1004F08BF20F076
:102DA0000100B2F57C0F38BF70470BD582F0FF02EF
:102DB00012F5803FC8BF704700F1C040D8BF00F097
:102DC0000040704700F5000C5FEA4C0C48BF7047AC
:102DD000B0F1C04000F073B890EA010F0CEAD113D3
:102DE00048BF42F48072624538BF634504D280EA2E
:102DF000010000F00040704710B500F01AF800BF65
:102E00008900013E00F007B800F009B85FEA410C04
:102E10005FEA1C6C08D080EA010000F050B85FEA5D
:102E2000400C5FEA1C6CF6D14FF00040A0F580002A
:102E300070470EF1020E2EF0030E5EF8044B244292
:102E400004D44FEA4102B2F17F4F11D84FEA400358
:102E5000B3F17F4F0CD80ED14FEAD07CB2F17F4F47
:102E60000CEB4C0C0CF1020C08BF4CEBD17C04E0D9
:102E70004FF0080C01E04FEAD17C0CEB4C0324FA34
:102E800003F404F00704B4F1040C06D20EEB840C36
:102E9000BDE810404CF0010C6047DFE80CF007087B
:102EA00002024FF00040A0F5800010BD084642002D
:102EB00018BFD2F1807288BF00F0004010BDFF2122
:102EC00041EAD050C0057047E82E000800000020FD
:102ED0009C00000028010008842F00089C000020AE
:102EE0007C08000044010008000000000000000011
:102EF00000000000010000000000000000000000D1
:102F000000000000000000000000000000000000C1
:102F100000000000000000000000000000000000B1
:102F200000000000000000000000000000000000A1
:102F30000000000000000000000000000000000091
:102F40000000000000000000009A019A029A039A13
:102F5000049A059A069A0000000000000000000094
:102F600000001A3B5C7D9E1A3B5C7D9E00000000C9
:102F70000000010203040102030406070809020419
:042F8000060800003F
:04000005080000ED02
:00000001FF
